:020000040000fa
:080000000002040000000000f2
:020000040000fa
:10040000af222100007f24000001880000000000ce
:100410000c000700605224000100200011000700ba
:10042000000020000000e000020032000000020096
:1004300000000000ac5a0200000000000040da009a
:100440000000fe004440a900000020000000e00081
:100450000300320000002000a00188004440a800f2
:100460000000060091018800800078000000eb0089
:1004700015003700e280400032a0b4009101ba00bc
:10048000e280400032a0b4009102ba00e280400055
:1004900032a0b4000002eb00472bde00f507b200eb
:1004a000602ce10004003a000059eb008301e900f0
:1004b000fdff3e00040037006128e100010032002a
:1004c0000082eb00040007001101ba000200e00006
:1004d000e8ff3a00000006003159ba008301e90044
:1004e0000c0032002159ba008301e90008003200f3
:1004f0000400e00003003a00e280400032a0b400b3
:10050000f5ff370011d9ba008301e900faff3a007c
:100510008100e800e180400032a0b4000000060045
:10052000925b040000000000225404000000000060
:100530009c57040000000000a0020400000000001e
:10054000881f78000204780022000700080040009d
:100550004f047800000006000000fa00881f7800b1
:10056000000478003fb99700ea81570080007800c6
:10057000002a20001e000700800078000000e00034
:10058000020035000040eb0000f478000100780024
:100590004f0478000080fa00000006008000780018
:1005a000010037000000e8001004e000fdff3a0001
:1005b00001005000000006008001eb00020037003f
:1005c000817178008301e800828f5100fcff3a00be
:1005d000000006008001eb000200370061f07900a6
:1005e0008301e800828f5100fcff3a000000060002
:1005f0006200fa00889fbe008a9fbe000004be0011
:10060000020578008300780060f92f000f00400099
:10061000b000070088979f0099979f000000eb00ab
:10062000a09f9f009a4578000b80fb000000ea0025
:10063000cf04de0050c2b30080cf5500020032006c
:1006400009047800010037000904e9000800e0000f
:100650000b0034001f909700080178008a00780092
:100660008f9197000300010090979f000000e00029
:10067000930032002f98970000004400a09f9f0035
:100680000905450050c2b30080cf55000400320078
:100690000b04e000e3ff3a002f9897008900370031
:1006a0000000eb00809f9f00f0979f00e0979f0065
:1006b000d0979f00c0979f00b0979f00c09f9f005a
:1006c00009003700801f210000805000000040001a
:1006d000c11e2100e10078004f98970001007000d2
:1006e000c09f9f000a05e8001a4478008800fb00bc
:1006f000801f21007c000700800078000000e000df
:10070000f0ff3a00a0c2b300804f54000e003a0040
:10071000bf8897000180e900b08f9f00100078002b
:10072000b09f9f000000e00005003d000000ea00cf
:10073000b09f9f004f9897000020a000c09f9f008f
:100740000a05e80010003700b19f9f0003fd2f004d
:10075000f4ff2700080037003f989700840f5000ef
:10076000040032006a00b9000000410003004000ac
:10077000b09f9f000a05e8001a01fb00030041003a
:10078000e90f5000f4ff3600e0c2b3009a4f1000aa
:10079000040032000080eb00909f9f008a047800e4
:1007a0001c0037008a04e800a0c2b300994f100073
:1007b00007003a00bf8897000180e900b08f9f00d2
:1007c00010007800909f9f008a84e8001100370095
:1007d0000000eb00909f9f0003fd2f00f4ff270017
:1007e000080037001f989700840f50000400320063
:1007f0006a00b9000000410003004000909f9f0084
:100800008904e8001901fb0003004100e90f5000d2
:10081000f4ff3600194478008800fb00a021210075
:10082000310007000000e00002003a0000447800b8
:10083000010037008904e800a87f9f0080c6b3004c
:10084000804f540004003a00994f14000a003a0007
:100850006640500006003700c0c6b300804f540009
:1008600005003a00994f140003003a00654040002b
:10087000a07f9f008904e8000905e800cbfb2f005a
:100880008f8545001901fb0060f92f000f00400023
:100890000084e8008b017800800078000800780070
:1008a0001a0007000000e00005003a008b00780005
:1008b00008007800580107000000e00059ff3d00e3
:1008c0000080eb004f05be004f04be000080fa0020
:1008d000000006000200fa00f1bf9f000108780046
:1008e0000080fa0000000600040037000204e00067
:1008f00001003a00000005000000e8001041780007
:10090000814f5100f9ff3a0000000600889fbe00a9
:100910008a1f780000047800010278008244780081
:1009200003057800e0c6b300804f5100d2003200ca
:1009300015003c006b405000804f510024003200f5
:100940000a003c0070405000804f51000f013200ff
:1009500065404000804f51007400320050c2b30027
:10096000804f510020013a001c01370040c6b300ff
:10097000804f51001b00320065404000804f510005
:1009800019013a001700370030c7b300804f5100fb
:10099000fe00320007003c0064405000804f5100d0
:1009a000620032000040e800804f51000e013a0022
:1009b000e700370050c7b300804f51005b003200a2
:1009c00063404000804f510007013a005700370054
:1009d0009180e900010a7800780090009171780018
:1009e00007013700a8609000c0c6b30080cf500058
:1009f0000a003a009400780064805000000a7800f1
:100a00001000be004f89de00cf91de000002be0064
:100a100002037800820378001300370010c7b30088
:100a200080cf500003003200a0c6b30080cf50003a
:100a300006003a009400780068805000000a7800b0
:100a40003002be002003be00070037001480e9001a
:100a5000000a78001000780000027800cfa2de00c3
:100a60000503780086037800049cbe000694be004f
:100a7000a860900080c6b30080cf50000e00320006
:100a800020c6b30080cf500005003a000400fb00f0
:100a9000cf80de0001017800820178000a00370073
:100aa00040c7b30080cf50000300320066404000d2
:100ab00080cf500006003a0004007800cf80de00ae
:100ac0000101780082017800009cbe000294be0003
:100ad0003800be002801be00e00f5000e08f580033
:100ae000e00f5900e08f590003003d0078009000ae
:100af000d1c2b3000a003700081090000018a3000c
:100b00000300320078009000b1c2b3000400370047
:100b10000008a300530032007800900001c2b30027
:100b2000017578000000e8004d003700a8609000d3
:100b3000c0c6b30080cf500006003a009400780091
:100b400064805000000a78001002be006033b800d4
:100b50001300370010c7b30080cf500003003200ed
:100b6000a0c6b30080cf500006003a009400780081
:100b700068805000000a78003002be002003be00ea
:100b8000070037001480e900000a780010007800a0
:100b90000002780005002000060020000700200069
:100ba000049cbe000694be00a860900080c6b300fe
:100bb00080cf50000e00320020c6b30080cf50001e
:100bc00005003a000480fb00010020000200200024
:100bd000030020000a00370040c7b30080cf500058
:100be000030032006640400080cf500006003a000b
:100bf0000400780001002000020020000300200013
:100c0000009cbe000294be00081090000038a300b3
:100c1000140032003800be002801be00e00f500072
:100c2000e08f5800e00f5900e08f59000d003200ae
:100c300080c7b30080cf54000300320080c5b300ea
:100c400080cf540007003a007800900001c3b30041
:100c5000017578008000e80009f578000080e80060
:100c6000700498007800900000004500600498002f
:100c70008940780042003700a8609000c0c6b300e9
:100c800080cf5000250032000a003c006440500034
:100c900080cf50002800320000c0e80080cf500014
:100ca000140032006840500080cf500022003a000b
:100cb0000a00370040c7b30080cf50001e0032004a
:100cc0006640400080cf50001b0032006940500059
:100cd00080cf500018003a00060037001480e90069
:100ce000000a780010007800485c900008487800fe
:100cf000450037001480e900000a780010027800ef
:100d000068089000cf80de00010178008201780041
:100d1000009abe000292be003b0037001480e9003a
:100d2000000a78001001780068089000cf80de008b
:100d30000089be00340037001480e900000a780002
:100d400010007800680c9000080878002e0037002a
:100d50001180e9008008780010007800cf80de0064
:100d60000101780082017800009cbe000294be0060
:100d700078009000000045006004980081c7b3002f
:100d800008007800ee0007001f0037001480e9001b
:100d9000000a78001000780060049800580990005c
:100da0000200e00002003d00fcfd070009003700e2
:100db0008000eb006b020700800078000000e0007c
:100dc00003003200680090000080500001003700ee
:100dd00058089000100c98000b0037007800900025
:100de000027578000600370078009000800045000a
:100df0000904e00001003a0059c2b30089487800b4
:100e00000000e800700498000000eb004f05780037
:100e10004f04be00000006000400fa00889fbe00d8
:100e20008a9fbe008c1f78000004780001067800bd
:100e300070089000f80090000100500088089000b1
:100e4000010050009808900001005000a808900090
:100e500001005000b808900001005000c808900040
:100e6000810550000002220090bf9f000003230074
:100e7000a0bf9f00081090000028a30018003a00af
:100e80000b00e000160034008b04780009057800a0
:100e9000e28f5400020036002a00200002003700d2
:100ea0000900e0000b00340058009000c8019000d9
:100eb0000a017800ee8057000300010050049800fa
:100ec0000000e00096003200680890000000450035
:100ed000600c98008a8454004240a900ebff3c005b
:100ee000780190000200e0000b00340058009000f0
:100ef000c80190008c0078000300010050049800a5
:100f00000000e0008600320068089000f8009000c1
:100f100001004000600c9800880c90000900e0007f
:100f20001500340009057800e28f540002003600f5
:100f30002a002000020037000900e0000b00340006
:100f400058009000c80190000a017800ec8057001a
:100f500003000100500498000000e000700032001f
:100f60006808900000004500600c98008a845400d6
:100f70004240a900ebff3c00180990000200e0008d
:100f80000b003400e800900058009000c801900069
:100f900003000100500498000000e00060003200ef
:100fa000680890009808900001004000600c9800cc
:100fb000a80c90000900e000150034000905780035
:100fc000e28f5400020036002a00200002003700a1
:100fd0000900e0000b00340058009000c8019000a8
:100fe0000a017800ec8057000300010050049800cb
:100ff0000000e0004a003200680890000000450050
:10100000600c98008a8454004240a900ebff3c0029
:10101000380990000200e0000d003400e800900064
:10102000180890008080400058009000c80190008f
:1010300003000100500498000000e0003800320076
:1010400068089000b808900001004000600c98000b
:10105000c80c90000900e000150034000905780074
:10106000e28f5400020036002a0020000200370000
:101070000900e0000b00340058009000c801900007
:101080000a017800ec80570003000100500498002a
:101090000000e000220032006808900000004500d7
:1010a000600c98008a8454004240a900ebff3c0089
:1010b000081090000028a3001b0032000b00e00085
:1010c000190034008b04780009057800e28f540081
:1010d000020036002a002000020037000900e0006c
:1010e0000b00340058009000c80190000a017800fd
:1010f000ee80570003000100500498000000e0005b
:10110000070032006808900000004500600c98005d
:101110008a8454004240a90003003400eaff3700eb
:101120000080eb00010037000000eb004f06780064
:101130004f05be004f04be000080fa00000006000c
:101140002f03b000889fbe008a9fbe008c9fbe0008
:101150008e1f780000077800f01a2100c0b79f00aa
:1011600080c5b30080cf500008003200e219210092
:10117000c2b79f007740400080cf500003003a0084
:1011800083002000b3b79f000a00370080c7b30078
:1011900080cf500005003200a4002000b4b79f00ab
:1011a00080c5b30080cf500002003a000501200046
:1011b000b5b79f003e04be002e05be0040c6b3007a
:1011c00080cf5000030032006540400080cf5000c7
:1011d0000b003a00e00f5400e08f5c00e00f5d0070
:1011e000e08f5d0006003d006000b8006011b800af
:1011f00008045000898458000a0559008b8559005d
:10120000bfb39700e88f530003003200f08f530004
:1012100045003a0002003700360020000100370088
:1012200046002000e00f5400e08f5c00e00f5d00fe
:10123000e08f5d0005003a005e089000810120000b
:10124000a1b79f000000e000080032003fb1970006
:101250000200e90008006000cfb197006340780009
:1012600090df9f0074012000a4b79f0086027800e1
:101270008502e900050033008b05d1000a85d30003
:101280008984d3000884d300f9ff3700089fbe008b
:101290000a97be00afb397000700e90021fc2f00ba
:1012a0008f804000008240003fb197008202e90039
:1012b00012003700afb397008703e900a7b79f007c
:1012c00000806200cfb09700615278003e00be00ff
:1012d0002e01be00860378008703e9000500330075
:1012e0008381d1000281d3008180d3000080d300ac
:1012f000f9ff3700009fbe000297be003e00be000f
:101300002e01be00e00f5000e08f5800e00f5900a2
:10131000e08f5900d6003400afb397000700e0001b
:10132000e4ff3c00d2003700ae60900080c6b300fe
:1013300080cf50000b00320006003c000104e000aa
:10134000080032006640500080cf500073003a0021
:1013500004003700c0c6b30080cf50006f003a00d1
:1013600031003700080178000800e00005003a006d
:101370005e08900081012000a1b79f000000e000fe
:1013800009003200bfb19700110009000381d800a5
:101390008000fd004fb297006440780090df9f000e
:1013a00075012000a5b79f00bfb397001100090089
:1013b0000781d80080017800afb097000100e900f4
:1013c00022fc2f000f014100000241000c003700f9
:1013d000bfb29700110009008501d8000001780014
:1013e000afb397008703e900a7b79f000590b90046
:1013f00000805100cfb097006152780082017800e0
:101400000300e000030034002fb197000200e00069
:10141000efff3c0003007800cf80de000101780080
:10142000820178003a0037000806be00e00f540041
:10143000e08f5c0005003a005e0890008301200008
:10144000a3b79f000000e000090032003fb2970000
:101450006121b9000c00be00f1000700cfb2970077
:101460006540780090df9f0077012000a7b79f00bc
:101470003fb297006121b9000c00be00d800070000
:101480000006be00afb297000500e90027fc2f0060
:101490008f8343008083430097b79f00110037007c
:1014a0003fb197006114b9000801be000c00be00f6
:1014b000bc0007000005be00afb197008301e90042
:1014c000a3b79f000801be00b0000700000056004f
:1014d0001fb29700cfb297006552780094b79f0073
:1014e0000a06be00e00f5600e08f5e0003003400e5
:1014f000afb397000700e000e9ff3c004feade00d1
:10150000cfa2de000c00be00040178008401780048
:10151000009fbe000297be0055003700e00f540048
:10152000e08f5c00e00f5d00e08f5d0005003a0099
:101530005e08900081012000a1b79f000000e0003c
:101540000d0032003fb1970002027800cfa2de000a
:1015500005037800860378000800be000a01be007b
:10156000330107004fb297006440780090df9f007e
:1015700075012000a5b79f003fb1970002027800d7
:10158000cfa2de0005037800860378000800be00c5
:101590000a01be001f010700009fbe000297be00a7
:1015a000afb197000300e90024fc2f000f024200b6
:1015b0000006420020003700bfb297000504780003
:1015c000cfc4de00090578008a0578000802be0055
:1015d0000a03be005fa89700efa897007fa99700b5
:1015e0008fb1970016010700d0b79f00e1b79f00a9
:1015f000f2b79f0083bf9f00afb397008703e90056
:10160000a7b79f000802be000a03be0092010700b0
:101610005faa970000005200cfb29700655678008d
:101620005fb09700efb097007fb197008fb9970038
:10163000009fbe000297be003e00be002e01be000d
:10164000d0af9f00e1af9f00f2af9f0083b79f0034
:10165000e00f5000e08f5800e00f5900e08f590074
:1016600003003400afb097000100e000d2ff3c005f
:101670003fb19700e80f510013003a000e109000a0
:101680000038a30010003200afb19700f78f51006f
:1016900006003e0024fc2f000f024200e4c0790047
:1016a00000c3b30080cf500007003200afb29700f4
:1016b0008502e900a5b79f0000c3b30027fc2f00f7
:1016c0008f83430080f37a00afb1970078811100d7
:1016d000120f98006e00900024fc2f000f024200b1
:1016e00083004200bbfb07001e0990005e089000cb
:1016f000800f510006003d0002005000000f9800ce
:101700000e1090000040a100001798000f00370055
:101710000000e0000d003d000e109000740060001d
:10172000f00f500009003a007e089000fe00900083
:10173000010050008e08900001005000020050008f
:101740004240a90001003400000f98004f077800c4
:101750004f06be004f05be004f04be002f03b10070
:10176000000006008001eb00040037008301e80060
:1017700090cf1000040032000000e800828f51007a
:10178000faff3a000000eb0000000600020ab90070
:10179000001bb9000200b800810042008100430034
:1017a00000000600839f68000100e00002003d0089
:1017b00060001000e08018000300e00002003d001f
:1017c00060011100e0811900050007004f00e000f2
:1017d00002003b0060001000e080180000000600de
:1017e0006022b800060220000000d0008180d200f4
:1017f0000482d2008582d2000000a00002025200c2
:1018000083825a00030031000202420083824a00b0
:101810000000a1000603e900f3ff3a000000060003
:10182000efff07000400be0000000600881f7800dc
:10183000000478005001be004000be0004004000db
:10184000858048000601490087814900009cbe0050
:101850000294be000400e1000588e1000690e1006a
:101860000798e10002003100680044001008e80019
:101870004f04780000000600f4874700889fbe00f0
:101880008a9fbe008c9fbe008e1f78000205be009e
:101890000004be00d4b79f00e5b79f00f6b79f00d5
:1018a00087bf9f000000eb00c0b79f00b0b79f004c
:1018b000a0b79f0090b79f0080b79f000d04200045
:1018c000bfb097004fb09700000140000000e0005b
:1018d0000f003d004f08de0000007100c0b79f0000
:1018e0009e00070001003d0012002000a10007003b
:1018f00001003d0012002000a6000700b100070013
:10190000b60007000f004000c8ff070022003700a4
:101910004f08de0000067100ccb79f008f00070063
:1019200001003d00120020009200070001003d0070
:101930001200200097000700a20007000fb29700d6
:101940009fb297002fb39700bfb39700a90007007d
:101950000000520081805a0002015b0083815b001d
:1019600080b79f0091b79f00a2b79f00b3b79f00b9
:101970000007eb009f0007000020e10001a8e10044
:1019800002b0e10003b8e100010031001e002000b8
:101990000e005600c0b79f004fb297000400e00051
:1019a0000700350010002000010020006011b80081
:1019b00008047000898470000a0571008b8571002d
:1019c0008d06e900beff3a000400e00003003d0080
:1019d000820007000f00400094ff07004fa8970007
:1019e0000000e00004003a000fb497009fb4970095
:1019f0002fb59700bfb59700940007004f077800f8
:101a00004f06be004f05be004f04be004f01b1009f
:101a100000000600881f780018002000881f78004a
:101a200095ff07008f87e9004f047800000006004b
:101a3000801feb0090ff07008f87e9000000060081
:101a4000889fbe008a9fbe008c1f78006e00070032
:101a500007003d0073000700e00f5b00e08f5b00b4
:101a600007003d00320007000006eb0004003700cd
:101a70003400070002003d002a0007001c0020007f
:101a800072000700e3ff07000203be000002be0071
:101a90000c00e00001003200220007000400be003c
:101aa0000601be004f0678004f05be004f04be0081
:101ab00000000600889fbe008a9fbe008c1f780031
:101ac0005100070005003d0056000700e00f5b00d5
:101ad000e08f5b0006003d0004003700190007009e
:101ae00003003d006000b8006011b800100007005e
:101af00056000700ceff07000203be000002be0032
:101b00000c00e00001003200060007000400be00e7
:101b10000601be004f0678004f05be004f04be0010
:101b2000000006006000b8006011b8000000370037
:101b3000040250008582580006035900878359002b
:101b4000000006000006eb00e00f5200e08f5a0094
:101b5000e00f5b00e08f5b000000060001804000aa
:101b600090b79f000001eb008fb097000100e000ec
:101b7000000006000200700090b79f000180400046
:101b800080b79f000001eb00ffa897000100e00074
:101b9000000006000200700080b79f000180400036
:101ba0006faa9700cf20de0001007000f0af9f0009
:101bb00004024200250007004f18de0000027200f8
:101bc00000000600e4af9f000804440089844c0034
:101bd0000a054d008b854d00000006003fb29700be
:101be000cfb297005fb39700efb3970000fe2f00ce
:101bf000000006003fb09700cfb097005fb197009c
:101c0000efb19700000006000205be000004be0010
:101c1000e00f5000e08f5800e00f5900e08f5900ae
:101c2000000006006000b8006011b8000804500011
:101c3000898458000a0559008b8559001c00200032
:101c4000e00f5200e08f5a00000006000800be00be
:101c50000a01be0000000600889fbe008a9fbe00e9
:101c60008c1f78000205be000004be000006eb00d9
:101c7000e00f5000e08f5800e00f5900e08f59004e
:101c800007003d006000b8006011b8000804500073
:101c9000898458000a0559008b8559001c002000d2
:101ca000e00f5200e08f5a00e00f5b00e08f5b0016
:101cb00002003d000f0007000c00a2000800be005b
:101cc0000a01be00120007000203be000002be00af
:101cd0000c00e00001003200060007000400be0016
:101ce0000601be004f0678004f05be004f04be003f
:101cf000000006006000b8006011b8000402500047
:101d000085825800060359008783590000000600a9
:101d1000889fbe008a9fbe008c9fbe000404b8004e
:101d20000506b8008904460060854e000606b80026
:101d30000a054600e0854e000706b8008b05460000
:101d4000040eb800890446000a854e00e0854d0067
:101d5000050eb8000a0546008b854e00060eb80039
:101d60008b0546000416b8000a0546008b854e0018
:101d70000516b8008b054600041eb8008b0546000a
:101d80000800be000a01be004f06be004f05be009f
:101d90004f04be00000006001012880021128800c7
:101da00002128800000006009540a90041e2a90047
:101db0008540a90000000600614060004500dd008c
:101dc00001742000914078000154a10080c070008f
:101dd0000100780040e7b7000000060084e0a90099
:101de000e7416000c419dd00710a200091407800cd
:101df000f2c8b30082c0600083c070008000fd00a4
:101e0000a7e0b7008000fd00680060004300de002e
:101e1000614060004700dd004109200091407800ea
:101e20000174a10080c070000100780094e0b70048
:101e30000000060094e0a90011e1a90084e0a900d7
:101e40000000060031e2a90097c0a90097e0a900b0
:101e500087c0a90087e0a9000000060087c0a9008c
:101e600087e0a900e7416000310b20009140780035
:101e700082cfb30082c0600083c070008000fd008c
:101e8000b3e0b7008000fd0001c7b30081416000ee
:101e9000310b200091407800f2c8b30082c060008e
:101ea00083c070008000fd00b3e0b7008000fd003b
:101eb000680160004311de004611dd007109200059
:101ec000914078000164a10082c070008000fd0094
:101ed00097e0b7008000fd000008b2004700de0078
:101ee000614060004700dd007109200091407800ea
:101ef0000174a10080c070000100780097e0b70075
:101f000000000600c211880080118800911188002d
:101f100001003700b011800032c2bf000008a300ea
:101f2000fcff3a0087c0a9000000060033c2bf00d2
:101f30000004a2006100600000000600800078003c
:101f400030c2bf0066406000e64f500002003a0019
:101f5000a1118800000006000180fb00a01188008c
:101f60000000060021e2a9009560a9009580a90063
:101f70008560a9008580a900000006008560a90091
:101f80008580a900e7416000c419dd00910a2000a6
:101f900091407800f2c8b30082c0600083c0700036
:101fa0008000fd00a9e0b7008000fd0080017800fe
:101fb0000307b200c419de00a10a20009140780096
:101fc00082cfb30082c0600083c070008000fd003b
:101fd000aae0b7008000fd00680160004311de0048
:101fe0004311dd0051092000914078000134a10027
:101ff00082c070008000fd0095e0b7008000fd0009
:102000000008b2004700de004400dd005109200056
:10201000914078000144a10080c070000100780068
:1020200095e0b7000000060042118800001188000a
:1020300011118800010037003011800022c2bf005a
:102040000008a300fcff3a008560a900000006001c
:1020500023c2bf000004a20061006000000006006f
:102060008000780020c2bf0066406000e64f50004c
:1020700002003a0021118800000006000180fb00e8
:1020800020118800000006000621ef00610888008a
:10209000800888001061a9000000060020c2bf006f
:1020a00066406000e64f500002003a0030118000a8
:1020b00000000600301180000080fb0000000600d8
:1020c00030c2bf0066406000e64f500002003a0098
:1020d000b011800000000600b01180000080fb00fd
:0420e00000000600f6
:020000040000fa
:020000040005f5
:0457f800fdfa0000b6
:020000040000fa
:020000040005f5
:0457fc00ff3f00006b
:020000040000fa
:10000800285c0000285c0000285c0000285c0000d8
:10001800285c0000285c0000285c0000285c0000c8
:10002800285c0000285c0000285c0000285c0000b8
:10003800285c0000285c0000285c00008850000054
:10004800285c0000285c0000285c0000c25000000a
:10005800a6500000285c0000285c0000285c000016
:10006800285c0000285c0000285c0000285c000078
:10007800285c0000285c0000285c0000285c000068
:10008800285c0000285c0000285c0000285c000058
:10009800285c0000285c0000fc500000e0500000d4
:1000a800285c0000285c0000285c0000285c000038
:1000b800285c0000285c0000285c0000285c000028
:1000c800285c0000285c0000285c0000285c000018
:1000d800285c0000285c0000285c0000285c000008
:1000e800285c0000285c0000285c0000285c0000f8
:1000f800285c0000285c0000285c0000285c0000e8
:10010800285c0000285c0000285c0000285c0000d7
:10011800285c0000285c0000285c0000285c0000c7
:10012800285c0000285c0000285c0000285c0000b7
:10013800285c0000285c0000285c0000285c0000a7
:10014800285c0000285c0000285c0000285c000097
:10015800285c0000285c0000285c0000285c000087
:10016800285c0000285c0000285c0000285c000077
:10017800285c0000285c0000285c0000285c000067
:10018800285c0000285c0000285c0000285c000057
:10019800285c0000285c0000285c0000285c000047
:1001a800285c0000285c0000285c0000285c000037
:1001b800285c0000285c0000285c0000285c000027
:1001c800285c0000285c0000285c0000285c000017
:1001d800285c0000285c0000285c0000285c000007
:1001e800285c0000285c0000285c0000285c0000f7
:0801f800285c0000285c0000f7
:020000040000fa
:10020800285c0000285c0000285c0000285c0000d6
:10021800285c0000285c0000285c0000285c0000c6
:10022800285c0000285c0000285c0000285c0000b6
:10023800285c0000285c0000285c00008850000052
:10024800285c0000285c0000285c0000c250000008
:10025800a6500000285c0000285c0000285c000014
:10026800285c0000285c0000285c0000285c000076
:10027800285c0000285c0000285c0000285c000066
:10028800285c0000285c0000285c0000285c000056
:10029800285c0000285c0000fc500000e0500000d2
:1002a800285c0000285c0000285c0000285c000036
:1002b800285c0000285c0000285c0000285c000026
:1002c800285c0000285c0000285c0000285c000016
:1002d800285c0000285c0000285c0000285c000006
:1002e800285c0000285c0000285c0000285c0000f6
:1002f800285c0000285c0000285c0000285c0000e6
:10030800285c0000285c0000285c0000285c0000d5
:10031800285c0000285c0000285c0000285c0000c5
:10032800285c0000285c0000285c0000285c0000b5
:10033800285c0000285c0000285c0000285c0000a5
:10034800285c0000285c0000285c0000285c000095
:10035800285c0000285c0000285c0000285c000085
:10036800285c0000285c0000285c0000285c000075
:10037800285c0000285c0000285c0000285c000065
:10038800285c0000285c0000285c0000285c000055
:10039800285c0000285c0000285c0000285c000045
:1003a800285c0000285c0000285c0000285c000035
:1003b800285c0000285c0000285c0000285c000025
:1003c800285c0000285c0000285c0000285c000015
:1003d800285c0000285c0000285c0000285c000005
:1003e800285c0000285c0000285c0000285c0000f5
:0803f800285c0000285c0000f5
:020000040000fa
:1020e4006400fa00702f9800f20047007e289000e8
:1020f4006c1907000004e000040032006000b8001e
:102104000037980011379800310037008715070011
:102114000004e000040032006000b80000379800ba
:10212400113798002a003700720047008e007800ab
:10213400c00807000004e00004003a006000b80092
:10214400003798001137980021003700f00047004d
:10215400720047008504200080824200720047001c
:102164000004b0000042eb00810178000e01780009
:1021740085007800f60607000004e00004003a0039
:102184006000b8000037980011379800100037003d
:102194000e089000304890000080fb004400de00f0
:1021a400610060000004e000040032006000b80038
:1021b4000037980011379800050037000e0890008a
:1021c4007c004000c52007000037980011379800b4
:1021d4000e3090009e3090000080fa00000006004f
:1021e4000c00fa006044800071448000841d0700e4
:1021f400004f78001e04e000030032001e80fb0044
:1022040050079800600037000040eb0086e8b700f4
:10221400604480007144800061004000e080480018
:1022240060448800714488006244800073448000e4
:102234008044800091448000800f5100818f5900b8
:102244004f0039000080eb008080eb0030418800b3
:102254004141880040448000514480000e81e800e0
:1022640006170700004f78001e04e0000300320048
:102274001e80fb0050079800430037001e019000a9
:10228400ae0190001000200001002000800f5100da
:10229400818f5900100036001e019000ae0190009d
:1022a400f0fe2f00f1ff2000800f5100818f5900b4
:1022b40009003e00404480005144800000448800ee
:1022c400114488001e009000ae0090008288200017
:1022d400381707002a00370066004700b6170700c2
:1022e400004f78001e04e000030032001e80fb0053
:1022f40050079800240037003e009000ce00900064
:1023040082ff2f00f3ff200094160700004f78008f
:102314001e04e000030032001e80fb0050079800fa
:10232400190037003e019000ce0190004044800027
:102334005144800089160700004f78001e04e00015
:10234400030032001e80fb00500798000e00370087
:1023540040448000514480000044880011448800b7
:102364003e009000ce0090008288200011170700e4
:10237400051607000080fb00500798000200370094
:102384000000eb00500798005e0090000080fa0007
:10239400000006001400fa00300798004107980076
:1023a4003e019000ce019000c0438000d1438000e4
:1023b40000005100818059003007980041079800bf
:1023c4003e009000ce00900010079800210798006e
:1023d40049170700004f78001e04e0000300320094
:1023e4009e80fb00710798007a003700214480002a
:1023f400002020000101500020448000800078006b
:10240400808a2000008040008000eb0069f807000b
:10241400204480006101b8001e009000ae009000ce
:1024240002014000838148000020200001002000b8
:10243400800f5100818f5900320036002144800002
:1024440000202000010050006101b8001e0090002f
:10245400ae009000020050008380580010079800de
:1024640021079800210037005dff07000004e00009
:102474000300320042012000720798005500370023
:10248400808a2000022020008000eb0049f8070029
:102494001e029000ae029000540798006507980051
:1024a40000202000010020005e019000ee01900059
:1024b400800f5100818f5900040036000420200051
:1024c4000500200054079800650798001e0090003e
:1024d400ae0090005e019000ee01900002005000fa
:1024e4008380580010079800210798001e00900070
:1024f400ae009000e00f5000e08f5800daff3a0081
:1025040008003700204480006101b8001e009000dc
:10251400ae0090000000410081804900100798003f
:102524002107980010c0b30086e8b700c2438000ba
:10253400d34380003e009000ce0090000200400093
:1025440083804800c0438800d1438800c043800092
:10255400d143800002e02f00f3ff2f000002780037
:102564008102780002007800830078000001620094
:10257400018062006102b800040f9800150f9800f2
:102584000e0890009e089000c000dd0000002000ae
:10259400000f9800110f98000e0890009e089000fc
:1025a4006112b800040f9800150f98000e099000ee
:1025b4009e0990000200700083807000a043880090
:1025c400b14388001e009000204488008001eb0085
:1025d400730798007e0090000080fa000000060057
:1025e4001400fa0070079800010f98000040eb00f7
:1025f400404798007e0090008e089000e00f500045
:10260400e08f580003003d006000b8007007980098
:10261400010f98007e0190008e099000c043800055
:10262400d1438000800f5100818f590016003e0075
:102634007e0190008e099000a0438000b143800089
:10264400800f5100818f59000f0039007e009000e7
:102654008e089000a2438000b34380000220b000a3
:102664000380b000820f5000838f580006003100b1
:102674007e019000a0438000b1438000000051001f
:1026840020448800bd00370086c8bf000004e00075
:102694000d0032000080eb008080eb00581c070026
:1026a400404798004e4090000004e00006003200cd
:1026b4000040eb0087e8b7004e4090000080fb002c
:1026c400100f9800b0003700e0438000f143800011
:1026d400e00f5000e08f5800a80032006000b800fe
:1026e400a0438800b14388000000eb002044880028
:1026f4006000b8000044880011448800e043800072
:10270400f14380004044880051448800c043800065
:10271400d1438000008fbe0002c8bf000080fb00d0
:102724000100200030079800410798003e00900007
:10273400ce0090004909dd00c700de008100710071
:102744004900dd0030079800410798000080eb0045
:102754008080eb0030418800414188003900370017
:1027640040448000514480006a014700c3150700bb
:10277400404798004e4090000004e00006003200fc
:102784000040eb0087e8b7004e4090000080fb005b
:10279400100f98007c0037001e01be003e00900020
:1027a400ce009000800f5100818f59002c0036001c
:1027b4001e01be003e009000ce00900000005100bb
:1027c40081805900008fbe007e0190008e09900028
:1027d4003e009000ce00900000005100818059001e
:1027e40070079800010f9800a2438000b343800053
:1027f4003e009000ce00900002004000838048001c
:10280400a0438800b14388005e019000ee0190006f
:10281400f0fe2f00f1ff2000800f5100818f59003e
:102824000f003e0040448000514480000044880072
:10283400114488005e009000ee009000404488003f
:10284400514488007e0190008e0990003e00900063
:10285400ce009000800f5100818f5900c0ff3100dd
:10286400404480005144800082882000d115070034
:102874001e00be00e00f5000e08f58002a00320016
:102884007e0090008e089000e00f5000e08f58000a
:102894002500320018003700604480007144800035
:1028a40061004000e0804800604488007144880072
:1028b4007e0190008e09900000e02f00f1ff2f00b0
:1028c400020040008380480070079800010f9800c0
:1028d40000e02f00f1ff2f001e0f40005e9748001c
:1028e400a0438000b14380000020b0000180b0000c
:1028f400a0438800b14388007e0190008e099000b7
:102904000020200001002000800f5100818f590019
:10291400050034000020200001002000be0f10003c
:10292400ae8f1800dcff3c007e0090008e08900003
:10293400be0f1000ae8f18000e003d001e00780080
:1029440020448800c2438000d34380007e0090006e
:102954008e08900002014000838148001e00be00e2
:1029640000005100818059008afe0700404798000a
:10297400020037007e009000204488004e40900002
:102984000080fb00100f98001e0890000080fa00e1
:10299400000006005c00fa00202f9800312f9800f8
:1029a4000040eb00404798003e2890000000e800fb
:1029b400104078000004e00015003a003e28900022
:1029c4009040780020c7b30080cf500002003a0046
:1029d40010c0b300404798003e2890009040780013
:1029e40070c7b30080cf500002003a0020c0b3008b
:1029f400404798003e2890009040780010c6b300ed
:102a040080cf500002003a0040c0b3004047980015
:102a14003e2890000000e80090407800b0c2b30067
:102a240080cf50001a003a003e2890000080e80051
:102a3400104078000004e00015003a003e289000a1
:102a44009040780020c7b30080cf500002003a00c5
:102a540080c0b300404798003e2890009040780022
:102a640070c7b30080cf500002003a0000c1b30029
:102a7400404798003e2890009040780010c6b3006c
:102a840080cf500002003a0000c2b30040479800d3
:102a94004e4090000004e00003003a000000eb0008
:102aa400502f980072013700e80047002e2890004c
:102ab400fc1607000004e000030032008000eb0075
:102ac400512f98006a013700181307000004e00032
:102ad400030032000000eb00502f9800640137001f
:102ae40087c8bf000004e000030032008000eb0050
:102af400512f98005e013700408720006011b80014
:102b04000288be00640040006011b8000288be0064
:102b1400640040006011b8000288be0064004000f8
:102b24006011b8000288be00640040006011b80063
:102b34000288be00640040008040eb000148780039
:102b440068004700818920003a0607000004e0007d
:102b540003003a000000eb00502f980044013700b6
:102b64004e4090000080fb00402f9800ce2890003b
:102b7400e48f50004c0032004e289000e40f5000c7
:102b840007003c00ce289000e18f50000f00320077
:102b94004e289000e20f50009c00320006013700de
:102ba400ce289000f08f50009800320000022000e0
:102bb400ce289000808f50003b0032004e289000b9
:102bc400e80f500001003200fb003700e600470028
:102bd40068004700850420008082420068004700a6
:102be4000004b0000042eb008101780082892000db
:102bf40085007800560407000004e00003003a0052
:102c04008000eb00512f9800190137003e0090001e
:102c1400304890000080fb004400de00610060004a
:102c24000004e000030032000000eb00502f980085
:102c34000f0137003e009000e8050700e0438800dc
:102c4400f1438800e0438000f1438000e00f50002e
:102c5400e08f5800db003200e0438000f143800045
:102c640082882000d31407003e0090007c004000be
:102c74001a1e0700c0438800d143880000e02f00db
:102c8400f1ff2f00a0438800b14388006000b80022
:102c940053fe07000004e000ca0032008000eb008d
:102ca400512f9800f200370080882000818920008d
:102cb4000700090031187800e60047006800470063
:102cc4008504200080824200680047000004b000b0
:102cd4000042eb00810178008289200085007800a1
:102ce4001b0407000004e000290032003e009000ad
:102cf400304890000080fb00710060000000e0009c
:102d0400030032000000eb00502f9800d800370079
:102d14003e009000b1050700e0438800f1438800bd
:102d24003e0090007c004000ec1d0700c04388007a
:102d3400d1438800e0438000f1438000e00f50005d
:102d4400e08f58009f003200e0438000f143800090
:102d5400828820009714070000e02f00f1ff2f0065
:102d6400a0438800b1438800c0438000d143800061
:102d74001bfe07000004e000920032000040eb005c
:102d840087e8b7008000eb00512f9800b8003700a7
:102d9400808920008188200007000900311878000c
:102da400c0448000d1448000828820008114070040
:102db400660147006800470081892000d3070700a7
:102dc4000004e000030032000000eb00502f9800e4
:102dd400a70037003e0190003e009000b0489000ec
:102de40000c2b30000c07000304998000080eb00be
:102df4008080eb00821a07000004e00071003200ba
:102e04008000eb00512f980099003700c0448000e7
:102e1400d14480008288200066140700e600470041
:102e24006800470085042000808242006800470053
:102e34000004b0000042eb00810178008288200089
:102e440085007800c20307000004e000310032006e
:102e54003e00900061050700008fbe003e00900018
:102e6400304890000080fb00710060000000e0002a
:102e7400030032000000eb00502f98007c00370064
:102e8400818920008088200007000900b01878009c
:102e94003e0090007c0040006011b800c21d070095
:102ea4003e0190003e009000b048900000c2b30084
:102eb40000c07000304998003e0090007a00400045
:102ec4008000eb00761d07003e0090007400400077
:102ed4008000eb00721d07000080eb008080eb0097
:102ee400471a07000004e000030032008000eb00f2
:102ef400512f98005e0037001e00be00fa14070030
:102f04000004e0002f0032000000eb00502f980076
:102f14005700370066014700680047008189200098
:102f24007a0707000004e000030032008000eb0091
:102f3400512f98004e003700408720006011b800e0
:102f44000288be00640040006011b8000288be0020
:102f5400640040006011b8000288be0064004000b4
:102f64006011b8000288be00640040006011b8001f
:102f74000288be00640040008040eb0001487800f5
:102f84003e0190003e009000b048900000c2b300a3
:102f940000c07000304998000080eb008080eb0096
:102fa400171a07000004e000060032000000eb00de
:102fb400502f98002e0037008000eb00512f98000e
:102fc4002b0037004e409000e14f500024003200a7
:102fd400e0438000f1438000e00f5000e08f580090
:102fe4001f003a000080eb008080eb003041880035
:102ff40041418800c08720006f1407000004e000ee
:10300400030032000000eb00502f98001800370036
:10301400e0438000f143800082882000e51307002c
:10302400e0438000f143800082ff2f00f3ff200083
:103034004a1307000004e000030032008000eb00a4
:10304400512f98000a003700cf1207000004e00057
:10305400030032000000eb00502f980004003700fa
:103064004e40900087e8b70011002000512f9800cf
:103074005e2890000080fa00000006000600fa00b6
:103084001007980020458000314580004509dd0087
:10309400cb00de00810071004500dd008000780077
:1030a400808a200000804000000f7800e044800007
:1030b400f14480002d1a07000004e00003003a00e8
:1030c4001e0090000000e000100032006011b80003
:1030d4001e007800c90407009e0078007c80400030
:1030e4006011b800301d07000080eb008080eb0009
:1030f400c3190700e0438000f14380007a140700fd
:10310400420120002207980018003700e2438000a3
:10311400f34380001e007800b8040700c243800017
:10312400d34380009e0078007c8040001e1d070071
:1031340026200700800078001e01780078004100f6
:10314400d71c070039200700800078001e01780092
:1031540076004100d21c07000080eb008080eb0069
:10316400a71907000080fb00200798002e0090009c
:103174000080fa00000006000600fa00100798001c
:103184001e0090000000e00003003a0080002000d0
:10319400200798002800370064110700004f7800ca
:1031a4001e04e000030032001e80fb00200798008c
:1031b4002100370087c8bf000004e00003003a0084
:1031c40080002000200798001b00370087c8bf003c
:1031d400e14f500005003a000040eb0087e8b700db
:1031e4000000eb0020079800130037000040eb00bc
:1031f40087e8b70086c8bf000004e0000a00320078
:103204000080eb008080eb007d1907000004e000e3
:10321400050032001000200098ff07004001200044
:1032240020079800040037000000eb0093ff07001c
:103234000080fb00200798002e0090000080fa0018
:10324400000006001c00fa0060079800720798004e
:10325400030f9800140f9800250f9800310f980061
:103264006e009000500798003e0890000000e000b7
:1032740004003a006000b800400f9800510f980015
:10328400d500370087c8bf008080fb009003200072
:10329400008060000000e00004003a006000b80014
:1032a400400f9800510f9800cb0037007e0090002b
:1032b4008e0890003007980041079800fe009000a7
:1032c4001e089000000ab800fe0090002e0890002e
:1032d4000088b90005017800000141009e089000b3
:1032e4000e0890000088b9000001410082027800b5
:1032f40074079800050f98003e009000ce009000df
:10330400100f9800210f98006000b8003007980053
:1033140041079800051107000004e0000400320092
:103324006000b800400f9800510f9800aa003700c1
:10333400204480006101b8007e0090008e08900057
:1033440002004000838048000001be00a0438000ca
:10335400b14380000201400083814800c0438000e3
:10336400d1438000800f5100818f59000c00390037
:10337400c2438000d3438000204480000100200029
:103384000001510081815900a0438000b1438000b5
:10339400000051008180590070079800010f9800c7
:1033a4007e0090008e089000e00f5000e08f5800df
:1033b40004003c006000b800400f9800510f9800d2
:1033c400850037004c1307000004e00006003200bb
:1033d4000040eb0087e8b7006000b800400f980099
:1033e400510f98007c0037007e0090008e089000fa
:1033f4001007980021079800214480000020200035
:10340400808f500038003a00a2438000b34380000c
:103414002044800001002000020040008380480016
:10342400a0438800b14388000000eb0020448800da
:1034340086c8bf000004e0000d0032000080eb00ed
:103444008080eb00ee180700004f78001e04e000b7
:10345400070032000040eb0087e8b7003e00900010
:10346400ce009000400f9800510f98005a0037008a
:10347400604480007144800061004000e0804800a6
:1034840060448800714488001b130700004f7800d3
:1034940091c0b3009ecf10000a003a007e00900055
:1034a4008e089000e00f5000e08f580005003a00ad
:1034b4003e009000ce009000400f9800510f9800fd
:1034c400450037001e04e000070032000040eb0016
:1034d40087e8b7003e009000ce009000400f9800af
:1034e400510f98003c0037007e0090008e08900039
:1034f400e00f5000e08f580030003200214480007b
:1035040000202000010050006101b8001e0090005e
:10351400ae009000800f5100818f590006003e00dc
:103524002144800000202000010050000100200000
:1035340010079800210798001e0190002044800085
:1035440080007800808a2000808040005e00900027
:103554001ff407001e009000800078005e009000b9
:103564000100400050079800214480001e00900094
:1035740000804000204488007e0190008e09900065
:103584001e009000ae0090000000510081805900a0
:1035940070079800010f98003e019000ce01900042
:1035a4001e009000ae00900002004000838048009e
:1035b40030079800410798008bff37001e099000e0
:1035c400ae0990003e009000ce00900074f8070011
:1035d400400f9800510f98004e089000de089000ac
:1035e4000080fa00000006001e00fa007007980030
:1035f400020f9800130f9800240f9800350f9800bd
:10360400410f98007e009000600798006000b800a9
:1036140020079800310798004e0890000000e00051
:1036240004003a006011b800520f9800630f98002c
:10363400de00370087c8bf008080fb00e003200065
:10364400008060000000e00004003a006000b80060
:10365400500f9800610f9800d40037000e099000b5
:103664009e09900042079800530798008e08900026
:103674002e089000000ab8008e0890003e089000c2
:103684000088b9000501780000014100ae089000ef
:103694001e0890000088b9000001410082027800f1
:1036a400040f9800150f98004e009000de00900063
:1036b400200f9800310f98006000b8004007980070
:1036c40051079800191007000004e00004003200bc
:1036d4006011b800520f9800630f9800b3003700d0
:1036e40087c8bf008080fb0040022000008060008b
:1036f4000000e0000b003200c0438000d143800092
:10370400b7fb07000004e000060032000040eb00b5
:1037140087e8b7006000b800500f9800610f980068
:10372400a2003700741207000004e0000600320013
:103734000040eb0087e8b7006011b800520f980012
:10374400630f9800990037000e0890009e089000bf
:10375400008fbe002144800000202000808f500094
:1037640046003a0086c8bf000004e00012003200a0
:103774009bfa07000004e000150032000040eb0053
:1037840087e8b7000000eb003cfe07000004e000ff
:1037940005003a004e019000de019000520f98009f
:1037a400630f9800810037006000b800500f980044
:1037b400610f98007d0037006044800071448000f0
:1037c40061004000e0804800604488007144880043
:1037d400a2438000b3438000204480000100200005
:1037e4000200400083804800a0438800b143880061
:1037f4000000eb00204488001e00be00e00f5000d3
:10380400e08f58001d003200f01f2000010020004e
:10381400be0f1000ae8f180018003e0036120700cd
:103824000080fb0001002000200798003107980069
:103834002e009000be009000e00f5000e08f580072
:103844000e0032002e019000be0190009000200076
:1038540001002000800f5100818f590007003200c1
:103864000040eb0087e8b7004e019000de019000b5
:10387400520f9800630f98004c0037000e08900018
:103884009e089000e00f5000e08f58004000320086
:10389400214480000020200001005000010020008d
:1038a400be0f5000ae8f580005003e00214480003a
:1038b400002020000100500001002000008fbe0005
:1038c4001e0178002044800080007800808a200057
:1038d40000804000ee0090003df3070010c0b300ec
:1038e40086e8b7001e007800800078006e00900023
:1038f4000100400060079800214480001e00780009
:1039040000804000204488000e0890009e0890002b
:103914003e015000ae8158000200be00000f980026
:10392400110f98004e009000de0090003e01400010
:10393400ae8148000200be0040079800510798007d
:10394400c4438000d5438000a2438000b343800079
:1039540020448000010020000200400083804800d1
:10396400800f5200818f5a0077ff3100a2438000fc
:10397400b343800020448000010020000200400086
:1039840083804800c0438800d14388006eff37001d
:103994002e099000be0990004e009000de009000b9
:1039a4007ff70700500f9800610f98005e089000a1
:1039b400ee0890000080fa00000006000c00fa00f7
:1039c400100798002207980033079800014f9800c9
:1039d4001e0090000000e00003003a008000200078
:1039e400500798003900370087c8bf008080fb006b
:1039f400f0032000008060000000e00003003a00b3
:103a0400800020005007980030003700470f07005f
:103a1400004f78001e04e000030032001e80fb000b
:103a240050079800290037000e489000e14f5000dd
:103a34000e003a00a2438000b3438000204480007b
:103a44000100200002014000838148002e00900004
:103a5400be0090000200400083804800e0fa0700a6
:103a64000080fb0050079800180037000e489000b3
:103a7400e24f50000a003a00c2438000d343800062
:103a84002e009000be009000020040008380480099
:103a9400d3fa07000080fb00500798000b003700a2
:103aa4000e4890000004e00006003a002e0090004a
:103ab400be009000cafa07000080fb00500798007f
:103ac40002003700b0002000500798005e0090000c
:103ad4000080fa00000006000600fa00000f7800db
:103ae4001e00e00004003a006000b80010079800cf
:103af400210798001200370087c8bf008080fb00b0
:103b0400f0032000008060000000e00004003a00a0
:103b14006000b800100798002107980008003700db
:103b2400a2438000b34380002044800001002000b1
:103b34000200400083804800100798002107980085
:103b44001e009000ae0090000080fa000000060005
:103b54000400fa00000f78001e00e00003003a00a1
:103b6400800020001007980010003700a243800056
:103b7400b343800020448000010020000201400083
:103b840083814800c0438000d1438000800f5100ee
:103b9400818f5900030031000000eb0010079800ea
:103ba4000200370090002000100798001e009000cb
:103bb4000080fa00000006006400fa000037980054
:103bc400f40047000e309000b61207000004e00035
:103bd40003003200400020001037980059003700dd
:103be400d20e0700004f78001e04e00003003200ec
:103bf4001e80fb0010379800520037008e80e800ca
:103c0400740047000b0207000004e00003003a00c0
:103c140030002000103798004a003700f2004700b7
:103c24000e81e80074004700850420008082420071
:103c3400740047000004b0000042eb0081017800ea
:103c440085007800420007000004e00003003a0009
:103c540050002000103798003a0037001e089000ea
:103c6400304890000080fb004400de0061006000ea
:103c74000004e000030032003000200010379800f8
:103c8400300037001e089000304890000080fb0090
:103c9400610060000004e00003003200d000200056
:103ca400103798002700370087c8bf000004e000e1
:103cb40013003200e2448000f34480000e80e800e8
:103cc400b000900020009000800f5100818f5900b7
:103cd4000b003a0022458000334580000e80e80046
:103ce400f000900060009000800f5100818f590017
:103cf40003003a00c000200010379800110037007c
:103d04001e08900051ceb300014878000080eb00fb
:103d14008080eb00ba160700004f78001e04e00014
:103d2400030032001e80fb001037980005003700a6
:103d34001e089000a90107006b1107000080fb001a
:103d4400103798001e3090000080fa000000060032
:103d54001400fa0040079800510798006207980081
:103d640073079800045798002d0137006e009000e7
:103d7400f0009000600090004509dd00cb00de00fb
:103d8400810071004500dd0080007800808a2000f9
:103d940000804000100798006e009000b000900072
:103da40020009000f11607000004e000dc0032005f
:103db4000000eb00100f9800220137001e00900055
:103dc400104078000004e00003003a008000eb009b
:103dd400110f98001b0137001e009000104078005e
:103de400fb4f4000c30032001e009000304890009a
:103df4000080fb004300de00610060000004e0007e
:103e0400bc003a000e5090000004e0007300320041
:103e14000040eb001047980010c0b300004f78003a
:103e2400260037001e4090000080fb0080007800d0
:103e34004e0090000080400090407800a0c2b30083
:103e440080cf5000200032001e4090000080fb0014
:103e5400800078004e009000008040009040780080
:103e6400f0c3b30080cf5000110032001e40900018
:103e74008080fb001e009000614078000081fb0000
:103e84001e4090000080fb00800078004e009000ef
:103e940000804000104078000000fb00800f5100bb
:103ea400030032000040eb00004f780006003700aa
:103eb4001e4090000040e800104798001e4090000b
:103ec400e74f5000d7ff36001e04e000890032009f
:103ed4000040eb001047980010c0b300004f78007a
:103ee400300037001e4090000080fb008000780006
:103ef4005e0090000080400090407800a0c2b300b3
:103f040080cf500009003a007e0090000000e000dd
:103f1400030032007e0090001e0190000208780029
:103f240010002000100f9800c60037001e409000bb
:103f34000080fb00800078005e009000008040005c
:103f440090407800f0c3b30080cf500012003200dc
:103f54001e4090000080fb009e009000680040001e
:103f640060c078000081fb001e4090000080fb00d0
:103f7400800078005e0090000080400010407800cf
:103f84000000fb00800f5100030032000040eb00f2
:103f9400004f7800060037001e4090000040e80003
:103fa400104798001e409000e24f5000cdff3600ad
:103fb4001e04e0004f0032007e0090000000e0008c
:103fc400030032007e0090009e00900001087800fb
:103fd40012002000120f98009a0037000040eb00f6
:103fe4001047980010c0b300004f78001400370049
:103ff4001e4090008080fb001e009000614078000d
:104004000081fb001e4090000080fb0080007800cf
:104014004e00900000804000104078000000fb003b
:10402400800f5100030032000040eb00004f780085
:10403400060037001e4090000040e800104798003a
:104044001e409000e74f5000e9ff36001e04e000d8
:10405400280032000040eb001047980010c0b30065
:10406400004f7800150037001e4090000080fb00d0
:104074009e0090006800400060c078000081fb0052
:104084001e4090000080fb00800078005e009000dd
:1040940000804000104078000000fb00800f5100b9
:1040a400030032000040eb00004f780006003700a8
:1040b4001e4090000040e800104798001e40900009
:1040c400e24f5000e8ff36001e04e0000900320011
:1040d4007e0090000000e000030032007e009000ab
:1040e4009e0090000108780012002000120f980032
:1040f400540037001e0090000002b0001007980022
:104104006e009000f000900060009000610040009c
:10411400e08048006e0190006001980071019800f1
:104124006e00900060019000f0019000f00020000b
:1041340001002000800f5100818f59001fff3600bd
:104144006e0190006000b800600198007101980051
:104154006e009000b00090002000900061004000cc
:10416400e08048006e019000200198003101980021
:104174006e00900020019000b00190006e0090004d
:10418400d000900040009000800f5100818f5900b2
:10419400f6fe39006e0090001000be00e00f5000e3
:1041a400e08f580003003a000000eb00100f980065
:1041b400240037000080eb008080eb003041880051
:1041c400414188006e0090001000be006401470069
:1041d4002a0f07000004e000030032008000eb0017
:1041e400110f9800170037002e019000be019000b7
:1041f400f0fe2f00f1ff2000800f5100818f590045
:10420400030036000001eb00120f98000d00370088
:104214002e009000be0090006e019000650f070014
:104224006e0090001001be00f0fe2f00f1ff200090
:10423400800f5100818f5900cdff36000000eb0044
:10424400100f98001e0890000080fa00000006007d
:104254000800fa0010079800210798003207980018
:1042640080c0b300104798001e409000004f7800b3
:104274000e0037001e4090000080fb008000780094
:104284002e009000008040000000e900904078007b
:1042940000c2b30080cf500007003a001e409000d7
:1042a4000040e900104798001e4fe9001e409000ae
:1042b4000004e000efff3a000040eb0010479800d4
:1042c4000d0037002e009000904078001e009000f2
:1042d400014878001e0090000000e80010079800d4
:1042e4002e0090000000e800200798001e40900077
:1042f4000040e800104798001e4090009e4f500078
:10430400f0ff390030c0b300104798001e40900001
:10431400004f78000e0037001e4090000080fb0024
:10432400800078003e009000008040000000e9001a
:104334009040780000c2b30080cf500007003a00dc
:104344001e4090000040e900104798001e4fe9000d
:104354001e4090000004e000efff3a001e04e0005d
:10436400060032009e009000e0c2b300804878004e
:104374001e0090000000e800100798000040eb00c9
:10438400104798000d0037003e00900090407800e0
:104394001e009000014878001e0090000000e80014
:1043a400100798003e0090000000e80030079800d5
:1043b4001e4090000040e800104798001e40900006
:1043c4009e4f5000f0ff39009e0090000040eb002b
:1043d400804878000080fa00000006000200fa001d
:1043e400000f78009e0078007a80400019180700ba
:1043f400010020000080fa00000006000600fa0018
:10440400000f780012079800230798009e00900080
:104414001e0178007a004100211807009e007800f0
:10442400748040008000eb001d1807000080fa0033
:10443400000006001a00fa00200f9800310f9800bf
:104444002e089000200798002e0090001007980076
:104454003e0990006000b800d60e0700bb0037008c
:1044640070014700e80047002e009000dd0f0700b0
:10447400104798003e0890001000be00e00f500066
:10448400e08f58000c003a001e409000e14f5000ad
:1044940009003a006800470090407800e0c2b30089
:1044a40080cf500004003a003e0990006000b8003c
:1044b400c00e07001b00370066004700f0004700ed
:1044c400e80247000042eb00800178003e099000ba
:1044d400050078001efe07000004e00003003a0017
:1044e4000000eb00400f9800a10037003e00900050
:1044f400304890000080fb004400de006100600052
:104504000000e00003003a000000eb00400f9800b8
:10451400970037003e009000b0ff07003e0990006e
:10452400a40e07006800470090407800e0c2b30082
:1045340080cf500056003a001e409000e14f5000da
:1045440016003a001e4090000080fb0080007800b6
:104554002e00900001004000200798002e009000db
:10456400104078000004e00008003a00ae08900013
:104574001e009000808f5000780032001e009000d2
:104584000000e90010079800740037002e00900026
:104594000000e800200798006c003700680047001e
:1045a40090409000e0c2b30080cf5000030032007e
:1045b4000000eb00400f98006d0037001e40900093
:1045c400e24f5000030032000000eb00400f98005f
:1045d400670037001e4090000080fb0080007800d8
:1045e4002e0090000100400020079800ae089000c3
:1045f4001e009000808f500003003a000000eb0082
:10460400400f98005a0037001e0090000000e90097
:1046140010079800ae0890001e009000808f500094
:104624000b0032001e0090000000e9001007980003
:104634001e00900090407800f0c2b30080cf50007c
:10464400f4ff3a001e0090000000e80010079800f4
:104654002e009000104078000004e00008003a00aa
:10466400ae0890001e009000808f50003b00320086
:104674001e0090000000e900100798003700370082
:104684002e0090000000e800200798002f0037005b
:10469400ae0090001e009000808f50000d003a0084
:1046a4001e4090000080fb00800078002e009000e7
:1046b40001004000200798001e4090000080fb008d
:1046c400800078001e009000010040001007980050
:1046d400110037000040eb00004f78000b0037005a
:1046e4002e009000904078001e0090000148780051
:1046f4001e0090000000e800100798002e009000b3
:104704000000e800200798001e4fe8001e409000bb
:104714009e4f1000f2ff39002e00900010407800e8
:104724000004e0000d0032002e0090000000e800bc
:10473400200798009e009000f0c2b30080487800e3
:104744001e0090000000e800100798002e00900062
:10475400104078000004e00041ff3a009e00900001
:104764000040eb008048780010002000400f9800c3
:104774004e0890000080fa00000006000800fa00cd
:104784001007980041479800524798004e40900007
:104794000004e00003003a000000eb00300798003a
:1047a400350037004e4090000040e9004047980033
:1047b4005e4090000004e0000c0032004e40900087
:1047c4000004e000090032009e009000f0c2b30033
:1047d400804878001e0090000000e8001007980050
:1047e4004e4090000040e900404798000040eb0034
:1047f40010479800130037001e4090000080fb0013
:10480400e102200080804000008020000080400001
:1048140090409000014f78001e4090000080fb0003
:10482400800078001e009000008040001e48780040
:104834001e04e000070032001e4090000040e80023
:10484400104798009e4090004e40900080cf50004a
:10485400e9ff39001e4090000080fb0080007800d2
:104864001e009000808040000040eb0080487800eb
:104874000000eb00300798003e0090000080fa0032
:10488400000006000800fa001007980021079800ad
:104894002e00900081052000808040001e009000c2
:1048a400800f07000004e0000300320040002000f5
:1048b40030079800160037009c0b0700004f780063
:1048c4001e04e000030032001e80fb003007980045
:1048d4000f0037002e009000410a20008080400025
:1048e4002e0090008005b000d2fe07000004e00016
:1048f40003003a003000200030079800040037001d
:104904002e009000050007000080fb00300798008f
:104914003e0090000080fa00000006000800fa0043
:1049240020079800810b0700004f78001e04e00068
:10493400030032001e80fb00300798006800370037
:104944002e009000420a2000000141002e00900039
:10495400010a2000808040002e009000850920007c
:10496400808242000e80e80014c0b3008001780009
:1049740005007800f6fc07000004e00003003a009c
:104984005000200030079800550037000040eb002d
:10499400104798000e0037001e4090008081fb00f5
:1049a4009e0090001e4090000080fb0060c07800d4
:1049b40000417800ae009000000420000300400095
:1049c40002f078001e4090000040e8001047980074
:1049d4001e409000e74f5000efff36000040eb0010
:1049e400104798000f0037001e4090008081fb00a4
:1049f4009e0090001e4090000080fb006800400074
:104a040060c0780000417800ae009000800420006f
:104a14000300400002f078001e4090000040e800cf
:104a2400104798001e409000e24f5000eeff360001
:104a34001e00900068004000000178001e009000f5
:104a4400800078002e00900001fe07001e009000f8
:104a5400b04890002e00900031c898001e009000cd
:104a6400780040007b160700800078002e0090003c
:104a7400712098001e009000760040007516070013
:104a8400800078002e009000612098001e009000a5
:104a94007c004000911607002e0190002029980008
:104aa400312998001e0090004cfe07002e01900052
:104ab40000299800112998002e00900090989000e9
:104ac4000098900061004000e08048002e019000b2
:104ad40000999800119998000000eb0030079800a5
:104ae4003e0090000080fa00000006006400fa0016
:104af40000379800f40047000e309000e90e0700dc
:104b0400004f780010c0b3009e4f100003003a001d
:104b1400400020001037980053003700030b0700b3
:104b2400004f78001e04e000030032001e80fb00ea
:104b3400103798004c0037000040eb0020479800e5
:104b4400030037002e4090000040e8002047980002
:104b54002e4090008080fb00740047006140780084
:104b64000004e000f7ff3a002e4090000004e0004b
:104b7400120032007400470080c0900000c2b300ed
:104b840080cf500005003a007400470080c89000b0
:104b940000c2b30080cf5000080032002e409000c5
:104ba4000081fb00f4004700f0c2b30000f178007c
:104bb4002e4090000040e800204798002e409000ce
:104bc4000080fb00f401470080814100740047002d
:104bd4008204200000014100740047000104200009
:104be400808040000300780099fd0700e40047003e
:104bf400740047000ffe07000004e00003003a00c1
:104c04005000200010379800170037000040eb00d8
:104c1400104798000e0037001e4090000081fb00f2
:104c24001e4090008080fb0074004700e141780042
:104c3400e1022000828040000080200000804000cb
:104c4400134098001e4090000040e8001047980070
:104c54009e409000f0c3b30080cf5000eeff3600ba
:104c64000000eb00103798001e3090000080fa001e
:104c7400000006000600fa00000f780011079800f3
:104c8400220798001e007800020220008000eb003a
:104c940048ee07009e0078001e00900007000900ff
:104ca400b05878008100b1008000b1001e00780087
:104cb400680140002e009000800078000200780017
:104cc400114878000000e8008100e80011487800ed
:104cd4000000e8008100e800114878003b19070053
:104ce400800078001e01780078004100ec15070070
:104cf4004e190700800078001e01780076004100fc
:104d0400e71507000080fa00000006001000fa0012
:104d14004007980051079800620798004e009000e1
:104d240000c090000004e00003003a0040002000ae
:104d340070079800f20037004e00900080c0900089
:104d4400e0c2b30080cf5000e4003a0042002000eb
:104d540072079800ea0037005e009000f0009000af
:104d6400600090004509dd00cb00de008100710089
:104d74004500dd0080007800808a2000008040002b
:104d8400000f78005e009000b000900020009000ba
:104d9400f6120700204798002e4090000004e0001f
:104da400260032002e4090000080fb00700798001f
:104db400d30037001e007800104078000004e000a3
:104dc400040032001e00780010407800fb4f4000c1
:104dd40010003a004e0090008204200000014100bf
:104de4004e00900001042000808040001e007800e6
:104df400a0ff07006e0090000000e00002003200f7
:104e04006e0090001e0878000000eb007007980008
:104e1400bb003700020220001e0f41005e0090001c
:104e2400f00090006000900061004000e0804800c5
:104e34005e01900060019800710198005e0090008e
:104e440060019000f0019000f000200001002000bb
:104e5400800f5100818f5900d6ff36005e0190000b
:104e64006000b80060019800710198005e00900035
:104e7400b00090002000900061004000e0804800f5
:104e84005e01900020019800310198005e009000be
:104e940020019000b00190005e009000d0009000ce
:104ea40040009000800f5100818f5900aaff390003
:104eb4005e0090001000be00e00f5000e08f58002c
:104ec40003003a0070002000700798008c0037003f
:104ed4000080eb008080eb00304188004141880075
:104ee4005e0090001000be0064014700e30b070061
:104ef400204798002e4090000004e0000400320097
:104f04002e4090000080fb00700798007c00370062
:104f14002e019000be019000f0fe2f00f1ff200052
:104f2400800f5100818f590005003e002e00900033
:104f3400be0090005e0190001e0c07006700370061
:104f4400640047009c0c0700204798002e40900006
:104f54000004e000040032002e4090000080fb00ba
:104f640070079800660037002e019000be01900083
:104f7400f0fe2f00f1ff2000800f5100818f5900b7
:104f840053003e0087c8bf000004e0000300320065
:104f94007200200072079800590037002e0090001c
:104fa400be00900082882000020c0700404480006c
:104fb4005144800082ff2f00f3ff2000670b07009d
:104fc400204798002e4090000004e00004003200c6
:104fd4002e4090000080fb007007980048003700c6
:104fe40042448000534480005e0090001000be00e4
:104ff4005a0b0700204798002e4090000004e00060
:10500400040032002e4090000080fb0070079800de
:105014003b003700dc0a0700204798002e40900030
:105024000004e000040032002e4090000080fb00e9
:1050340070079800320037000080eb008080eb009e
:105044003041880041418800808a200002202000ed
:105054008000eb0057ed070011003700604480002a
:1050640071448000e6110700204798002e4090000c
:105074000004e000040032002e4090000080fb0099
:10508400700798001e00370060448000714480005f
:1050940061004000e080480060448800714488005a
:1050a4006244800073448000804480009144800006
:1050b400800f5100818f5900e8ff3900404480007f
:1050c400514480005e019000ba0b070003003700d2
:1050d4007000200070079800090037005e009000ff
:1050e4001001be00f0fe2f00f1ff2000800f5100e0
:1050f400818f590065ff3600720020007207980006
:105104007e0090000080fa00000006007800fa009b
:10511400203f9800410220008e8040002e389000ed
:10512400600d07000004e00003003200400020008e
:10513400303f9800c50037007c090700004f780015
:105144001e04e000030032001e80fb00303f980084
:10515400be0037008e80e800400220000e004000b0
:10516400b4fc07000004e00003003a003000200013
:10517400303f9800b5003700f20047000e80e80089
:1051840007000900b01878000101b1000001b10066
:10519400400220000e00400080c09000e0c2b30036
:1051a40080cf500003003a0050002000303f9800a8
:1051b400a6003700210220008e80400072014700c3
:1051c400400220000e00400085042000808242003e
:1051d400400220000e0040000004b0000042eb003a
:1051e4008101780085007800d9fa07000004e00006
:1051f4000300320060002000303f98009300370025
:10520400f20047000e80e80007000900b01878009b
:105214000101b1000001b1000080eb008080eb00cf
:105224003041880041418800000720000e00400002
:10523400e10b0700004f78001e04e0000300320079
:105244001e80fb00303f98008000370022022000bf
:105254000e014100f2004700400220000e00400011
:10526400aafe0700004f78001e04e000030032008d
:105274001e80fb00303f9800740037009e109000a1
:105284001e109000304890000044a000b0489800e0
:1052940087c8bf000004e00003003200c000200003
:1052a400303f9800690037000e3890009e38900017
:1052b400828820003f0b07000e3990009e39900031
:1052c4001e1090004dfc07000080eb008080eb0076
:1052d4004b110700808a2000101798001e109000c0
:1052e400621d2100a11d210062fe07009e10900096
:1052f40000c1b300b04898000e3990009e39900068
:105304001e1090003dfc07001e1090000002b0002b
:10531400101798001e109000621d2100311e2100fc
:1053240054fe07009e10900000c1b300b0489800de
:105334000e80e8001001be001e1090002ffc070034
:105344001e1090000002b000101798001e1090006c
:10535400021c20008000eb0096ec070060448000f3
:105364007144800026110700004f78001e04e000fd
:10537400030032001e80fb00303f980033003700ea
:10538400604480007144800061004000e080480077
:105394006044880071448800808a20000204200050
:1053a4008000eb0083ec07000f00370060448000ae
:1053b4007144800012110700004f78001e04e000c1
:1053c400030032001e80fb00303f98001f003700ae
:1053d400604480007144800061004000e080480027
:1053e40060448800714488006244800073448000f3
:1053f4008044800091448000800f5100818f5900c7
:10540400eaff39000080eb008080eb003041880027
:1054140041418800404480005144800082ff2f00b5
:10542400f3ff20004d0a0700004f78001e04e0003f
:10543400030032001e80fb00303f98000300370059
:10544400d10907000080fb00303f98003e389000ef
:105454000080fa00000006000600fa00008fbe007b
:10546400060037005f120700e14f400003003200de
:105474000000eb00200798000b0037000080eb00d1
:105484008080eb001e0f40005e9748000080eb0018
:105494008080eb00be0f1000ae8f1800f1ff3a00c1
:1054a40011002000210798002e0090000080fa00cf
:1054b400000006000600fa008077800091778000e3
:1054c400008fbe000600370046120700e14f40007f
:1054d40003003a008000eb00210798000b0037001e
:1054e4000080eb008080eb001e0f40005e974800b8
:1054f4000080eb008080eb00be0f1000ae8f180020
:10550400f1ff3a0011002000210798002e009000be
:105514000080fa00000006000a00fa002047980004
:1055240022079800330798000040eb00004f7800f2
:10553400ae40900000c4b30000c070002047980043
:1055440000c0eb000912070000c0eb0007120700bf
:1055540000c0eb00051207002e4090000312070064
:105564002e009000be0090004808de0001002000dc
:10557400fe1107002e009000be0090004008de00df
:1055840001002000f91107002e009000be009000d9
:105594004809dd004800de0000007100c808de0094
:1055a400f21107002e009000f011070050c9b3005b
:1055b400ee1107000040eb00104798000b00370085
:1055c40008120700004f780000c0eb009e4f100047
:1055d400030032001e81fb004207980008003700d8
:1055e4001e4090000040e800104798001e409000c4
:1055f400e84f5000f2ff3600f00f200040079800fb
:105604004e0090000080fa00000006000e00fa0030
:10561400100798002207980033079800111780009c
:10562400f0fd2f0000806000101788002e0090000d
:10563400be0090004909dd00c700de008100710052
:105644004900dd0020079800310798002e019000e2
:10565400be01900010c1b300afff0700004f7800f7
:105664001e04e0000f003200111780000002200029
:10567400008070001017880000c0eb00bb11070009
:105684001e80fb00610060000004e00002003200a4
:105694000040eb00cceeb700330020006307980015
:1056a400310037006000b8004007980051079800a7
:1056b400060037004e019000de01900061014100b8
:1056c400e081490042079800530798006077800002
:1056d400717780004e019000de019000800f510030
:1056e400818f590005003100be110700004f78007a
:1056f40080c1eb009ecf1100eeff3200e0cfb3007b
:105704009e4f100009003200101780000102200093
:10571400010070001017880000c0eb00931107000f
:1057240041002000610798000f0037001e00900020
:10573400b31107001e0090000020b000100798006d
:10574400a8110700a711070011178000000220000c
:10575400008070001017880000c0eb008311070060
:105764000001eb00620798006e0090000080fa00d0
:10577400000006000e00fa001007980022079800a7
:105784003307980011178000f0fd2f00008060009f
:10579400101788002e009000be0090004909dd001b
:1057a400c700de00810071004900dd002007980079
:1057b400310798002e019000be01900080c1b30013
:1057c40055ff0700004f78001e04e0000f00320070
:1057d400111780000002200000807000101788005c
:1057e40000c0eb00611107001e80fb006100600037
:1057f4000004e000020032000040eb00cceeb700f1
:1058040033002000630798004d00370000c0eb0010
:1058140056110700e0cfb300541107001e0090009a
:105824005f1107001e0090000020b00010079800d0
:105834000040eb004d1107000040eb004b11070046
:105844006000b8004007980051079800090037002d
:1058540064110700fb4f40000d0032004e01900020
:10586400de01900061014100e08149004207980097
:105874005307980080002000010020004e01900092
:10588400de019000800f5100818f5900f0ff360037
:1058940090002000010020004e019000de019000e5
:1058a400800f5100818f590009003a0010178000c1
:1058b40001022000010070001017880000c0eb00f6
:1058c4002a11070073002000630798001c003700aa
:1058d40000c0eb002511070000c0eb0023110700f6
:1058e40000c0eb002111070000c0eb001f110700ee
:1058f400f0fe07000000e0000900320010178000ed
:1059040001022000010070001017880000c0eb00a5
:1059140016110700500020006007980008003700a7
:105924001017800001022000010070001017880089
:1059340000c0eb000d1107008000eb006107980028
:105944006e0090000080fa00000006000c00fa00cf
:10595400204f9800314f980040ed20002007980018
:105964006000b8003007980041079800ae489000e6
:105974003e48900000c040008040780000c8b3005a
:1059840001405000204798002e4090000080fb000a
:105994004300de000080fb00800078002e009000b1
:1059a40001004000200798002e40900067406000ee
:1059b40020479800ae40900080c0b30001405000e2
:1059c400104798002e009000104f78002e00900091
:1059d4000000e80020079800060037001e40780009
:1059e40000404000004f78002e4090000040e90045
:1059f400204798002e4090000004e000f7ff3a0092
:105a0400210037003e009000ce00900000004000ce
:105a14008180480030079800410798001e4090009c
:105a24000004e00007003a0080c0b300104798006b
:105a34002e009000104f78002e0090000000e80027
:105a4400200798001e4078000004e00005003d0097
:105a54003e009000ce0090000000a00030079800a7
:105a6400410798001e40780000404000004f780035
:105a74001e4090000040e900104798003e48900006
:105a84000040e900304f98003e4890000004e000d8
:105a9400dcff3a003e009000ce0090000080fa0047
