:020000040000fa
:080000000002040000000000f2
:020000040000fa
:100400002f262100007f240000018800000000004a
:100410000c000700205921000100200011000700f6
:10042000000020000000e000020032000000020096
:1004300000000000702e0200000000000040da0002
:100440000000fe004440a900000020000000e00081
:100450000300320000002000a00188004440a800f2
:100460000000060091018800800078000000eb0089
:1004700015003700e280400032a0b4009101ba00bc
:10048000e280400032a0b4009102ba00e280400055
:1004900032a0b4000002eb00472bde00f507b200eb
:1004a000602ce10004003a000059eb008301e900f0
:1004b000fdff3e00040037006128e100010032002a
:1004c0000082eb00040007001101ba000200e00006
:1004d000e8ff3a00000006003159ba008301e90044
:1004e0000c0032002159ba008301e90008003200f3
:1004f0000400e00003003a00e280400032a0b400b3
:10050000f5ff370011d9ba008301e900faff3a007c
:100510008100e800e180400032a0b4000000060045
:1005200040230400000000002c2c04000000000008
:10053000102e040000000000203104000000000024
:100540003c31040000000000a21a0400000000007a
:10055000dc26040000000000b002040000000000df
:10056000881f78000204780022000700080040007d
:100570004f047800000006000000fa00881f780091
:10058000000478003fb99700ea81570080007800a6
:10059000002b20001e000700800078000000e00013
:1005a000020035000040eb0000f478000100780004
:1005b0004f0478000080fa000000060080007800f8
:1005c0001104b100030035009101b10001003c00ad
:1005d0000050a000000006008000780001003700f5
:1005e0000000e8001004e000fdff3a0001005000a8
:1005f000000006008001eb000200370061f0790086
:100600008301e800828f5100fcff3a0000000600e1
:100610006200fa00889fbe008a9fbe000004be00f0
:10062000020578008300780060f92f000f00400079
:10063000b000070088979f0099979f000000eb008b
:10064000a09f9f009a4578000b80fb000000ea0005
:10065000cf04de0050c2b30080cf5500020032004c
:1006600009047800010037000904e9000800e000ef
:100670000b0034001f909700080178008a00780072
:100680008f9197000300010090979f000000e00009
:10069000930032002f98970000004400a09f9f0015
:1006a0000905450050c2b30080cf55000400320058
:1006b0000b04e000e3ff3a002f9897008900370011
:1006c0000000eb00809f9f00f0979f00e0979f0045
:1006d000d0979f00c0979f00b0979f00c09f9f003a
:1006e0000900370000232100008050000000400076
:1006f00041222100e10078004f989700010070002e
:10070000c09f9f000a05e8001a4478008800fb009b
:10071000002321007c000700800078000000e0003a
:10072000f0ff3a00a0c2b300804f54000e003a0020
:10073000bf8897000180e900b08f9f00100078000b
:10074000b09f9f000000e00005003d000000ea00af
:10075000b09f9f004f9897000020a000c09f9f006f
:100760000a05e80010003700b19f9f0003fd2f002d
:10077000f4ff2700080037003f989700840f5000cf
:10078000040032006a00b90000004100030040008c
:10079000b09f9f000a05e8001a01fb00030041001a
:1007a000e90f5000f4ff3600e0c2b3009a4f10008a
:1007b000040032000080eb00909f9f008a047800c4
:1007c0001c0037008a04e800a0c2b300994f100053
:1007d00007003a00bf8897000180e900b08f9f00b2
:1007e00010007800909f9f008a84e8001100370075
:1007f0000000eb00909f9f0003fd2f00f4ff2700f7
:10080000080037001f989700840f50000400320042
:100810006a00b9000000410003004000909f9f0063
:100820008904e8001901fb0003004100e90f5000b2
:10083000f4ff3600194478008800fb0020252100d1
:10084000310007000000e00002003a000044780098
:10085000010037008904e800a87f9f0080c6b3002c
:10086000804f540004003a00994f14000a003a00e7
:100870006640500006003700c0c6b300804f5400e9
:1008800005003a00994f140003003a00654040000b
:10089000a07f9f008904e8000905e800cbfb2f003a
:1008a0008f8545001901fb0060f92f000f00400003
:1008b0000084e8008b017800800078000800780050
:1008c0001a0007000000e00005003a008b007800e5
:1008d00008007800580107000000e00059ff3d00c3
:1008e0000080eb004f05be004f04be000080fa0000
:1008f000000006000200fa00f1bf9f000108780026
:100900000080fa0000000600040037000204e00046
:1009100001003a00000005000000e80010417800e6
:10092000814f5100f9ff3a0000000600889fbe0089
:100930008a1f780000047800010278008244780061
:1009400003057800e0c6b300804f5100d2003200aa
:1009500015003c006b405000804f510024003200d5
:100960000a003c0070405000804f51000f013200df
:1009700065404000804f51007400320050c2b30007
:10098000804f510020013a001c01370040c6b300df
:10099000804f51001b00320065404000804f5100e5
:1009a00019013a001700370030c7b300804f5100db
:1009b000fe00320007003c0064405000804f5100b0
:1009c000620032000040e800804f51000e013a0002
:1009d000e700370050c7b300804f51005b00320082
:1009e00063404000804f510007013a005700370034
:1009f0009180e900010a78007800900091717800f8
:100a000007013700a8609000c0c6b30080cf500037
:100a10000a003a009400780064805000000a7800d0
:100a20001000be004f89de00cf91de000002be0044
:100a300002037800820378001300370010c7b30068
:100a400080cf500003003200a0c6b30080cf50001a
:100a500006003a009400780068805000000a780090
:100a60003002be002003be00070037001480e900fa
:100a7000000a78001000780000027800cfa2de00a3
:100a80000503780086037800049cbe000694be002f
:100a9000a860900080c6b30080cf50000e003200e6
:100aa00020c6b30080cf500005003a000400fb00d0
:100ab000cf80de0001017800820178000a00370053
:100ac00040c7b30080cf50000300320066404000b2
:100ad00080cf500006003a0004007800cf80de008e
:100ae0000101780082017800009cbe000294be00e3
:100af0003800be002801be00e00f5000e08f580013
:100b0000e00f5900e08f590003003d00780090008d
:100b1000d1c2b3000a003700081090000018a300eb
:100b20000300320078009000b1c2b3000400370027
:100b30000008a300530032007800900001c2b30007
:100b4000017578000000e8004d003700a8609000b3
:100b5000c0c6b30080cf500006003a009400780071
:100b600064805000000a78001002be006033b800b4
:100b70001300370010c7b30080cf500003003200cd
:100b8000a0c6b30080cf500006003a009400780061
:100b900068805000000a78003002be002003be00ca
:100ba000070037001480e900000a78001000780080
:100bb0000002780005002000060020000700200049
:100bc000049cbe000694be00a860900080c6b300de
:100bd00080cf50000e00320020c6b30080cf5000fe
:100be00005003a000480fb00010020000200200004
:100bf000030020000a00370040c7b30080cf500038
:100c0000030032006640400080cf500006003a00ea
:100c100004007800010020000200200003002000f2
:100c2000009cbe000294be00081090000038a30093
:100c3000140032003800be002801be00e00f500052
:100c4000e08f5800e00f5900e08f59000d0032008e
:100c500080c7b30080cf54000300320080c5b300ca
:100c600080cf540007003a007800900001c3b30021
:100c7000017578008000e80009f578000080e80040
:100c8000700498007800900000004500600498000f
:100c90008940780042003700a8609000c0c6b300c9
:100ca00080cf5000250032000a003c006440500014
:100cb00080cf50002800320000c0e80080cf5000f4
:100cc000140032006840500080cf500022003a00eb
:100cd0000a00370040c7b30080cf50001e0032002a
:100ce0006640400080cf50001b0032006940500039
:100cf00080cf500018003a00060037001480e90049
:100d0000000a780010007800485c900008487800dd
:100d1000450037001480e900000a780010027800ce
:100d200068089000cf80de00010178008201780021
:100d3000009abe000292be003b0037001480e9001a
:100d4000000a78001001780068089000cf80de006b
:100d50000089be00340037001480e900000a7800e2
:100d600010007800680c9000080878002e0037000a
:100d70001180e9008008780010007800cf80de0044
:100d80000101780082017800009cbe000294be0040
:100d900078009000000045006004980081c7b3000f
:100da00008007800ee0007001f0037001480e900fb
:100db000000a78001000780060049800580990003c
:100dc0000200e00002003d0003fe070009003700ba
:100dd0008000eb006b020700800078000000e0005c
:100de00003003200680090000080500001003700ce
:100df00058089000100c98000b0037007800900005
:100e000002757800060037007800900080004500e9
:100e10000904e00001003a0059c2b3008948780093
:100e20000000e800700498000000eb004f05780017
:100e30004f04be00000006000400fa00889fbe00b8
:100e40008a9fbe008c1f780000047800010678009d
:100e500070089000f8009000010050008808900091
:100e6000010050009808900001005000a808900070
:100e700001005000b808900001005000c808900020
:100e8000810550000002220090bf9f000003230054
:100e9000a0bf9f00081090000028a30018003a008f
:100ea0000b00e000160034008b0478000905780080
:100eb000e28f5400020036002a00200002003700b2
:100ec0000900e0000b00340058009000c8019000b9
:100ed0000a017800ee8057000300010050049800da
:100ee0000000e00096003200680890000000450015
:100ef000600c98008a8454004240a900ebff3c003b
:100f0000780190000200e0000b00340058009000cf
:100f1000c80190008c007800030001005004980084
:100f20000000e0008600320068089000f8009000a1
:100f300001004000600c9800880c90000900e0005f
:100f40001500340009057800e28f540002003600d5
:100f50002a002000020037000900e0000b003400e6
:100f600058009000c80190000a017800ec805700fa
:100f700003000100500498000000e00070003200ff
:100f80006808900000004500600c98008a845400b6
:100f90004240a900ebff3c00180990000200e0006d
:100fa0000b003400e800900058009000c801900049
:100fb00003000100500498000000e00060003200cf
:100fc000680890009808900001004000600c9800ac
:100fd000a80c90000900e000150034000905780015
:100fe000e28f5400020036002a0020000200370081
:100ff0000900e0000b00340058009000c801900088
:101000000a017800ec8057000300010050049800aa
:101010000000e0004a00320068089000000045002f
:10102000600c98008a8454004240a900ebff3c0009
:10103000380990000200e0000d003400e800900044
:10104000180890008080400058009000c80190006f
:1010500003000100500498000000e0003800320056
:1010600068089000b808900001004000600c9800eb
:10107000c80c90000900e000150034000905780054
:10108000e28f5400020036002a00200002003700e0
:101090000900e0000b00340058009000c8019000e7
:1010a0000a017800ec80570003000100500498000a
:1010b0000000e000220032006808900000004500b7
:1010c000600c98008a8454004240a900ebff3c0069
:1010d000081090000028a3001b0032000b00e00065
:1010e000190034008b04780009057800e28f540061
:1010f000020036002a002000020037000900e0004c
:101100000b00340058009000c80190000a017800dc
:10111000ee80570003000100500498000000e0003a
:10112000070032006808900000004500600c98003d
:101130008a8454004240a90003003400eaff3700cb
:101140000080eb00010037000000eb004f06780044
:101150004f05be004f04be000080fa0000000600ec
:101160002f03b000889fbe008a9fbe008c9fbe00e8
:101170008e1f780000077800d01b2100c0b79f00a9
:1011800080c5b30080cf500008003200c21a210091
:10119000c2b79f007740400080cf500003003a0064
:1011a00083002000b3b79f000a00370080c7b30058
:1011b00080cf500005003200a4002000b4b79f008b
:1011c00080c5b30080cf500002003a000501200026
:1011d000b5b79f003e04be002e05be0040c6b3005a
:1011e00080cf5000030032006540400080cf5000a7
:1011f0000b003a00e00f5400e08f5c00e00f5d0050
:10120000e08f5d0006003d006000b8006011b8008e
:1012100008045000898458000a0559008b8559003c
:10122000bfb39700e88f530003003200f08f5300e4
:1012300045003a0002003700360020000100370068
:1012400046002000e00f5400e08f5c00e00f5d00de
:10125000e08f5d0005003a005e08900081012000eb
:10126000a1b79f000000e000080032003fb19700e6
:101270000200e90008006000cfb1970063407800e9
:1012800090df9f0074012000a4b79f0086027800c1
:101290008502e900050033008b05d1000a85d300e3
:1012a0008984d3000884d300f9ff3700089fbe006b
:1012b0000a97be00afb397000700e90021fc2f009a
:1012c0008f804000008240003fb197008202e90019
:1012d00012003700afb397008703e900a7b79f005c
:1012e00000806200cfb09700615278003e00be00df
:1012f0002e01be00860378008703e9000500330055
:101300008381d1000281d3008180d3000080d3008b
:10131000f9ff3700009fbe000297be003e00be00ee
:101320002e01be00e00f5000e08f5800e00f590082
:10133000e08f5900d6003400afb397000700e000fb
:10134000e4ff3c00d2003700ae60900080c6b300de
:1013500080cf50000b00320006003c000104e0008a
:10136000080032006640500080cf500073003a0001
:1013700004003700c0c6b30080cf50006f003a00b1
:1013800031003700080178000800e00005003a004d
:101390005e08900081012000a1b79f000000e000de
:1013a00009003200bfb19700110009000381d80085
:1013b0008000fd004fb297006440780090df9f00ee
:1013c00075012000a5b79f00bfb397001100090069
:1013d0000781d80080017800afb097000100e900d4
:1013e00022fc2f000f014100000241000c003700d9
:1013f000bfb29700110009008501d80000017800f4
:10140000afb397008703e900a7b79f000590b90025
:1014100000805100cfb097006152780082017800bf
:101420000300e000030034002fb197000200e00049
:10143000efff3c0003007800cf80de000101780060
:10144000820178003a0037000806be00e00f540021
:10145000e08f5c0005003a005e08900083012000e8
:10146000a3b79f000000e000090032003fb29700e0
:101470006121b9000c00be00d2000700cfb2970076
:101480006540780090df9f0077012000a7b79f009c
:101490003fb297006121b9000c00be00cc000700ec
:1014a0000006be00afb297000500e90027fc2f0040
:1014b0008f8343008083430097b79f00110037005c
:1014c0003fb197006114b9000801be000c00be00d6
:1014d000cf0007000005be00afb197008301e9000f
:1014e000a3b79f000801be00b0000700000056002f
:1014f0001fb29700cfb297006552780094b79f0053
:101500000a06be00e00f5600e08f5e0003003400c4
:10151000afb397000700e000e9ff3c004feade00b0
:10152000cfa2de000c00be00040178008401780028
:10153000009fbe000297be0055003700e00f540028
:10154000e08f5c00e00f5d00e08f5d0005003a0079
:101550005e08900081012000a1b79f000000e0001c
:101560000d0032003fb1970002027800cfa2de00ea
:1015700005037800860378000800be000a01be005b
:10158000330107004fb297006440780090df9f005e
:1015900075012000a5b79f003fb1970002027800b7
:1015a000cfa2de0005037800860378000800be00a5
:1015b0000a01be001f010700009fbe000297be0087
:1015c000afb197000300e90024fc2f000f02420096
:1015d0000006420020003700bfb2970005047800e3
:1015e000cfc4de00090578008a0578000802be0035
:1015f0000a03be005fa89700efa897007fa9970095
:101600008fb1970016010700d0b79f00e1b79f0088
:10161000f2b79f0083bf9f00afb397008703e90035
:10162000a7b79f000802be000a03be009201070090
:101630005faa970000005200cfb29700655678006d
:101640005fb09700efb097007fb197008fb9970018
:10165000009fbe000297be003e00be002e01be00ed
:10166000d0af9f00e1af9f00f2af9f0083b79f0014
:10167000e00f5000e08f5800e00f5900e08f590054
:1016800003003400afb097000100e000d2ff3c003f
:101690003fb19700e80f510013003a000e10900080
:1016a0000038a30010003200afb19700f78f51004f
:1016b00006003e0024fc2f000f024200e4c0790027
:1016c00000c3b30080cf500007003200afb29700d4
:1016d0008502e900a5b79f0000c3b30027fc2f00d7
:1016e0008f83430080f37a00afb1970078811100b7
:1016f000120f98006e00900024fc2f000f02420091
:1017000083004200bbfb07001e0990005e089000aa
:10171000800f510006003d0002005000000f9800ad
:101720000e1090000040a100001798000f00370035
:101730000000e0000d003d000e10900074006000fd
:10174000f00f500009003a007e089000fe00900063
:10175000010050008e08900001005000020050006f
:101760004240a90001003400000f98004f077800a4
:101770004f06be004f05be004f04be002f03b10050
:10178000000006008001eb00040037008301e80040
:1017900090cf1000040032000000e800828f51005a
:1017a000faff3a000000eb0000000600020ab90050
:1017b000001bb9000200b800810042008100430014
:1017c00000000600020007000400be000000060042
:1017d0006022b800060220000000d0008180d20004
:1017e0000482d2008582d2000000a00002025200d2
:1017f00083825a00030031000202420083824a00c1
:101800000000a1000603e900f3ff3a000000060013
:10181000839f68000100e00002003d0060001000ae
:10182000e08018000300e00002003d0060011100ac
:10183000e0811900e6ff07004f00e00002003b00d6
:1018400060001000e080180000000600881f78008b
:10185000000478005001be004000be0004004000bb
:10186000858048000601490087814900009cbe0030
:101870000294be000400e1000588e1000690e1004a
:101880000798e10002003100680044001008e800f9
:101890004f04780000000600f4874700889fbe00d0
:1018a0008a9fbe008c9fbe008e1f78000205be007e
:1018b0000004be00d4b79f00e5b79f00f6b79f00b5
:1018c00087bf9f000000eb00c0b79f00b0b79f002c
:1018d000a0b79f0090b79f0080b79f000d04200025
:1018e000bfb097004fb09700000140000000e0003b
:1018f0000f003d004f08de0000007100c0b79f00e0
:101900009e00070001003d0012002000a10007001a
:1019100001003d0012002000a6000700b1000700f2
:10192000b60007000f004000c8ff07002200370084
:101930004f08de0000067100ccb79f008f00070043
:1019400001003d00120020009200070001003d0050
:101950001200200097000700a20007000fb29700b6
:101960009fb297002fb39700bfb39700a90007005d
:101970000000520081805a0002015b0083815b00fd
:1019800080b79f0091b79f00a2b79f00b3b79f0099
:101990000007eb009f0007000020e10001a8e10024
:1019a00002b0e10003b8e100010031001e00200098
:1019b0000e005600c0b79f004fb297000400e00031
:1019c0000700350010002000010020006011b80061
:1019d00008047000898470000a0571008b8571000d
:1019e0008d06e900beff3a000400e00003003d0060
:1019f000820007000f00400094ff07004fa89700e7
:101a00000000e00004003a000fb497009fb4970074
:101a10002fb59700bfb59700940007004f077800d7
:101a20004f06be004f05be004f04be004f01b1007f
:101a300000000600881f780018002000881f78002a
:101a400095ff07008f87e9004f047800000006002b
:101a5000801feb0090ff07008f87e9000000060061
:101a6000889fbe008a9fbe008c1f78006e00070012
:101a700007003d0073000700e00f5b00e08f5b0094
:101a800007003d00320007000006eb0004003700ad
:101a90003400070002003d002a0007001c0020005f
:101aa00072000700e3ff07000203be000002be0051
:101ab0000c00e00001003200220007000400be001c
:101ac0000601be004f0678004f05be004f04be0061
:101ad00000000600889fbe008a9fbe008c1f780011
:101ae0005100070005003d0056000700e00f5b00b5
:101af000e08f5b0006003d0004003700190007007e
:101b000003003d006000b8006011b800100007003d
:101b100056000700ceff07000203be000002be0011
:101b20000c00e00001003200060007000400be00c7
:101b30000601be004f0678004f05be004f04be00f0
:101b4000000006006000b8006011b8000000370017
:101b5000040250008582580006035900878359000b
:101b6000000006000006eb00e00f5200e08f5a0074
:101b7000e00f5b00e08f5b0000000600018040008a
:101b800090b79f000001eb008fb097000100e000cc
:101b9000000006000200700090b79f000180400026
:101ba00080b79f000001eb00ffa897000100e00054
:101bb000000006000200700080b79f000180400016
:101bc0006faa9700cf20de0001007000f0af9f00e9
:101bd00004024200250007004f18de0000027200d8
:101be00000000600e4af9f000804440089844c0014
:101bf0000a054d008b854d00000006003fb297009e
:101c0000cfb297005fb39700efb3970000fe2f00ad
:101c1000000006003fb09700cfb097005fb197007b
:101c2000efb19700000006000205be000004be00f0
:101c3000e00f5000e08f5800e00f5900e08f59008e
:101c4000000006006000b8006011b80008045000f1
:101c5000898458000a0559008b8559001c00200012
:101c6000e00f5200e08f5a00000006000800be009e
:101c70000a01be0000000600889fbe008a9fbe00c9
:101c80008c1f78000205be000004be000006eb00b9
:101c9000e00f5000e08f5800e00f5900e08f59002e
:101ca00007003d006000b8006011b8000804500053
:101cb000898458000a0559008b8559001c002000b2
:101cc000e00f5200e08f5a00e00f5b00e08f5b00f6
:101cd00002003d000f0007000c00a2000800be003b
:101ce0000a01be00120007000203be000002be008f
:101cf0000c00e00001003200060007000400be00f6
:101d00000601be004f0678004f05be004f04be001e
:101d1000000006006000b8006011b8000402500026
:101d20008582580006035900878359000000060089
:101d3000889fbe008a9fbe008c9fbe000404b8002e
:101d40000506b8008904460060854e000606b80006
:101d50000a054600e0854e000706b8008b054600e0
:101d6000040eb800890446000a854e00e0854d0047
:101d7000050eb8000a0546008b854e00060eb80019
:101d80008b0546000416b8000a0546008b854e00f8
:101d90000516b8008b054600041eb8008b054600ea
:101da0000800be000a01be004f06be004f05be007f
:101db0004f04be0000000600614060004500dd00e9
:101dc00001742000914078000154a10080c070008f
:101dd0000100780040e7b7000000060084e0a90099
:101de000e7416000c419dd00710a200091407800cd
:101df000f2c8b30082c0600083c070008000fd00a4
:101e0000a7e0b7008000fd00680060004300de002e
:101e1000614060004700dd004109200091407800ea
:101e20000174a10080c070000100780094e0b70048
:101e30000000060094e0a90011e1a90084e0a900d7
:101e4000000006000621ef00610888008008880075
:101e50001061a9000000060020c2bf0066406000bb
:101e6000e64f500002003a003011800000000600ea
:101e7000301180000080fb000000060030c2bf006f
:101e800066406000e64f500002003a00b01180004a
:101e900000000600b01180000080fb00000006007a
:101ea00021e2a9009560a9009580a9008560a9009c
:101eb0008580a900000006008560a9008580a90032
:101ec000e7416000c419dd00910a200091407800cc
:101ed000f2c8b30082c0600083c070008000fd00c3
:101ee000a9e0b7008000fd00800178000307b20080
:101ef000c419de00a10a20009140780082cfb3000f
:101f000082c0600083c070008000fd00aae0b700be
:101f10008000fd00680160004311de004311dd0018
:101f200051092000914078000134a10082c0700066
:101f30008000fd0095e0b7008000fd000008b200c1
:101f40004700de004400dd00510920009140780088
:101f50000144a10080c070000100780095e0b70046
:101f6000000006004211880000118800111188004d
:101f7000010037003011800022c2bf000008a3001a
:101f8000fcff3a008560a9000000060023c2bf00e4
:101f90000004a200610060000000060080007800dc
:101fa00020c2bf0066406000e64f500002003a00c9
:101fb00021118800000006000180fb00201188002c
:101fc0000000060031e2a90097c0a90097e0a9002f
:101fd00087c0a90087e0a9000000060087c0a9000b
:101fe00087e0a900e7416000310b200091407800b4
:101ff00082cfb30082c0600083c070008000fd000b
:10200000b3e0b7008000fd0001c7b300814160006c
:10201000310b200091407800f2c8b30082c060000c
:1020200083c070008000fd00b3e0b7008000fd00b9
:10203000680160004311de004611dd0071092000d7
:10204000914078000164a10082c070008000fd0012
:1020500097e0b7008000fd000008b2004700de00f6
:10206000614060004700dd00710920009140780068
:102070000174a10080c070000100780097e0b700f3
:1020800000000600c21188008011880091118800ac
:1020900001003700b011800032c2bf000008a30069
:1020a000fcff3a0087c0a9000000060033c2bf0051
:1020b0000004a200610060000000060080007800bb
:1020c00030c2bf0066406000e64f500002003a0098
:1020d000a1118800000006000180fb00a01188000b
:0420e00000000600f6
:020000040000fa
:020000040005f5
:0457f800fdfa0000b6
:020000040000fa
:020000040005f5
:0457fc00ff3f00006b
:020000040000fa
:1000080090310000903100009031000090310000e4
:1000180090310000903100009031000090310000d4
:1000280090310000903100009031000090310000c4
:10003800903100009031000090310000342500001c
:100048009031000090310000903100006e250000d2
:1000580052250000903100009031000090310000de
:100068009031000090310000903100009031000084
:100078009031000090310000903100009031000074
:100088009031000090310000903100009031000064
:100098009031000090310000ac2500009025000050
:1000a8009031000090310000903100009031000044
:1000b8009031000090310000903100009031000034
:1000c8009031000090310000903100009031000024
:1000d8009031000090310000903100009031000014
:1000e8009031000090310000903100009031000004
:1000f80090310000903100009031000090310000f4
:1001080090310000903100009031000090310000e3
:1001180090310000903100009031000090310000d3
:1001280090310000903100009031000090310000c3
:1001380090310000903100009031000090310000b3
:1001480090310000903100009031000090310000a3
:100158009031000090310000903100009031000093
:100168009031000090310000903100009031000083
:100178009031000090310000903100009031000073
:100188009031000090310000903100009031000063
:100198009031000090310000903100009031000053
:1001a8009031000090310000903100009031000043
:1001b8009031000090310000903100009031000033
:1001c8009031000090310000903100009031000023
:1001d8009031000090310000903100009031000013
:1001e8009031000090310000903100009031000003
:0801f80090310000903100007d
:020000040000fa
:1002080090310000903100009031000090310000e2
:1002180090310000903100009031000090310000d2
:1002280090310000903100009031000090310000c2
:10023800903100009031000090310000342500001a
:100248009031000090310000903100006e250000d0
:1002580052250000903100009031000090310000dc
:100268009031000090310000903100009031000082
:100278009031000090310000903100009031000072
:100288009031000090310000903100009031000062
:100298009031000090310000ac250000902500004e
:1002a8009031000090310000903100009031000042
:1002b8009031000090310000903100009031000032
:1002c8009031000090310000903100009031000022
:1002d8009031000090310000903100009031000012
:1002e8009031000090310000903100009031000002
:1002f80090310000903100009031000090310000f2
:1003080090310000903100009031000090310000e1
:1003180090310000903100009031000090310000d1
:1003280090310000903100009031000090310000c1
:1003380090310000903100009031000090310000b1
:1003480090310000903100009031000090310000a1
:100358009031000090310000903100009031000091
:100368009031000090310000903100009031000081
:100378009031000090310000903100009031000071
:100388009031000090310000903100009031000061
:100398009031000090310000903100009031000051
:1003a8009031000090310000903100009031000041
:1003b8009031000090310000903100009031000031
:1003c8009031000090310000903100009031000021
:1003d8009031000090310000903100009031000011
:1003e8009031000090310000903100009031000001
:0803f80090310000903100007b
:020000040000fa
:1020e4000000fa00101780000102200001007000b7
:1020f400101788000080fa00000006000000fa00b3
:1021040010178000f1fd2f000100600010178800f7
:102114000080fa00000006000000fa00501780005a
:102124000110200001007000501788000080fa00a0
:10213400000006000000fa0050178000f1ef2f00a5
:1021440001006000501788000080fa0000000600bb
:102154000000fa0050178000010820000100700000
:10216400501788000080fa00000006000000fa0002
:1021740050178000f1f72f0001006000501788000d
:102184000080fa00000006000000fa00d01680006b
:102194000120200001007000d01688000080fa00a1
:1021a400000006000000fa00d0168000f1df2f00c6
:1021b40001006000d01688000080fa0000000600cc
:1021c4000000fa00501780000030a000501788006b
:1021d4000080fa00000006000000fa00501780009a
:1021e40071ff2f0001006000501788000080fa0082
:1021f400000006000000fa00501780000020a00034
:10220400501788000080fa00000006000000fa0061
:1022140050178000b1ff2f000100600050178800a4
:102224000080fa00000006000000fa005017800049
:102234000102200001007000501788000080fa009d
:10224400000006000000fa0050178000f1fd2f0086
:1022540001006000501788000080fa0000000600aa
:102264000000fa00501780000040a00050178800ba
:102274000080fa00000006000000fa0050178000f9
:10228400f1fe2f0001006000501788000080fa0062
:10229400000006000000fa009017800001202000d2
:1022a40001007000901788000080fa00000006000a
:1022b4000000fa0090178000f1df2f000100600099
:1022c400901788000080fa00000006000000fa0061
:1022d4009017800001102000010070009017880002
:1022e4000080fa00000006000000fa009017800049
:1022f400f1ef2f0001006000901788000080fa00c1
:10230400000006000000fa00901780000108200079
:1023140001007000901788000080fa000000060099
:102324000000fa0090178000f1f72f000100600010
:10233400901788000080fa00000006000000fa00f0
:10234400901780000104200001007000901788009d
:102354000080fa00000006000000fa0090178000d8
:10236400f1fb2f0001006000901788000080fa0044
:10237400000006000000fa00d016800001002800ca
:1023840001007000d01688000080fa0000000600ea
:102394000000fa00d0168000f1ff27000100600061
:1023a400d01688000080fa00000006000000fa0041
:1023b400d01680000100240001007000d0168800af
:1023c4000080fa00000006000000fa00d016800029
:1023d400f1ff2b0001006000d01688000080fa0095
:1023e400000006000000fa005017800001002200df
:1023f40001007000501788000080fa0000000600f9
:102404000000fa0050178000f1ff2d000100600069
:10241400501788000080fa00000006000000fa004f
:10242400501780000100210001007000501788003f
:102434000080fa00000006000000fa005017800037
:10244400f1ff2e0001006000501788000080fa00a0
:10245400000006000000fa00d016800001102000e1
:1024640001007000d01688000080fa000000060009
:102474000000fa00d0168000f1ef2f000100600088
:10248400d01688000080fa00000006000000fa0060
:10249400d01680000030a000d01688000080fa001a
:1024a400000006000000fa00d016800071ff2f0023
:1024b40001006000d01688000080fa0000000600c9
:1024c4000000fa00d0168000010021000100700015
:1024d400d01688000080fa00000006000000fa0010
:1024e400d0168000f1ff2e0001006000d016880095
:1024f4000080fa00000006000000fa00d0168000f8
:102504000040a000d01688000080fa0000000600f9
:102514000000fa00d0168000f1fe2f0001006000d8
:10252400d01688000080fa00000006000000fa00bf
:10253400101680000020a000101688000080fa0009
:10254400000006000000fa0010168000b1ff2f0002
:1025540001006000101688000080fa0000000600e8
:102564000000fa00101680000030a0001016880049
:102574000080fa00000006000000fa001016800037
:1025840071ff2f0001006000101688000080fa001f
:10259400000006000000fa0010178000010420006b
:1025a40001007000101788000080fa000000060087
:1025b4000000fa0010178000f1fb2f0001006000fa
:1025c400101788000080fa00000006000000fa00de
:1025d4001017800001082000010070001017880007
:1025e4000080fa00000006000000fa0010178000c6
:1025f400f1f72f0001006000101788000080fa0036
:10260400000006000000fa00501780000010a0002f
:10261400501788000080fa00000006000000fa004d
:1026240050178000d1ff2f00010060005017880070
:102634000080fa00000006000000fa005017800035
:102644000000a000501788000080fa000000060077
:102654000000fa0050178000e1ff2f000100600025
:10266400501788000080fa00000006000000fa00fd
:10267400901780000010a000901788000080fa00d6
:10268400000006000000fa0090178000d1ff2f0020
:1026940001006000901788000080fa000000060026
:1026a4000000fa00901780000000a0009017880036
:1026b4000080fa00000006000000fa009017800075
:1026c400e1ff2f0001006000901788000080fa00ed
:1026d400000006000000fa0010168000010024002b
:1026e40001007000101688000080fa000000060047
:1026f4000000fa0010168000f1ff2b0001006000ba
:10270400101688000080fa00000006000000fa009d
:1027140010168000010028000100700010168800c7
:102724000080fa00000006000000fa001016800085
:10273400f1ff270001006000101688000080fa00f5
:10274400000006000000fa001017800001102000ad
:1027540001007000101788000080fa0000000600d5
:102764000000fa0010178000f1ef2f000100600054
:10277400101788000080fa00000006000000fa002c
:10278400101780000120200001007000101788003d
:102794000080fa00000006000000fa001017800014
:1027a400f1df2f0001006000101788000080fa009c
:1027b400000006000000fa0050168000010220000c
:1027c40001007000501688000080fa000000060026
:1027d4000000fa0050168000010220000100700081
:1027e400501688000080fa00000006000000fa007d
:1027f400501680000040a000501688000080fa00a7
:10280400000006000000fa0050168000f1fe2f00c0
:1028140001006000501688000080fa0000000600e5
:102824000000fa00501680000030a0005016880006
:102834000080fa00000006000000fa005016800034
:1028440071ff2f0001006000501688000080fa001c
:10285400000006000000fa00501680000020a000ce
:10286400501688000080fa00000006000000fa00fc
:1028740050168000b1ff2f00010060005016880040
:102884000080fa00000006000000fa0050168000e4
:102894000010a000501688000080fa000000060016
:1028a4000000fa0050168000d1ff2f0001006000e4
:1028b400501688000080fa00000006000000fa00ac
:1028c400501680000000a000501688000080fa0016
:1028d400000006000000fa0050168000e1ff2f00ff
:1028e40001006000501688000080fa000000060015
:1028f4000000fa005016800001042000010070005e
:10290400501688000080fa00000006000000fa005b
:1029140050168000f1fb2f00010060005016880063
:102924000080fa00000006000000fa005016800043
:102934000108200001007000501688000080fa0091
:10294400000006000000fa0050168000f1f72f0086
:1029540001006000501688000080fa0000000600a4
:102964000000fa00501680000110200001007000e1
:10297400501688000080fa00000006000000fa00eb
:1029840050168000f1ef2f000100600050168800ff
:102994000080fa00000006000000fa0050168000d3
:1029a4000120200001007000501688000080fa0009
:1029b400000006000000fa0050168000f1df2f002e
:1029c40001006000501688000080fa000000060034
:1029d4000000fa0050168000014020000100700041
:1029e400501688000080fa00000006000000fa007b
:1029f40050168000f1bf2f000100600050168800bf
:102a04000080fa00000006000000fa005016800062
:102a14000180200001007000501688000080fa0038
:102a2400000006000000fa0050168000f17f2f001d
:102a340001006000501688000080fa0000000600c3
:102a44000000fa005016800001002100010070000f
:102a5400501688000080fa00000006000000fa000a
:102a640050168000f1ff2e0001006000501688000f
:102a74000080fa00000006000000fa0050168000f2
:102a84000100220001007000501688000080fa0046
:102a9400000006000000fa0050168000f1ff2d002f
:102aa40001006000501688000080fa000000060053
:102ab4000000fa005016800001002400010070009c
:102ac400501688000080fa00000006000000fa009a
:102ad40050168000f1ff2b000100600050168800a2
:102ae4000080fa00000006000000fa005016800082
:102af4000100280001007000501688000080fa00d0
:102b0400000006000000fa0050168000f1ff2700c4
:102b140001006000501688000080fa0000000600e2
:020000040000fa
:102b2400980a0000c200000000000000e410000049
:102b34007400000002000000746173006b5f750094
:102b440073625f0074616c006b3a20000953740077
:102b540061727400696e67002e00740061736b000b
:102b64005f757300625f7400616c6b003a2009004a
:102b740053656e0064696e00672074006f20550011
:102b840053422e0000746100736b5f007573620022
:102b94005f7461006c6b3a00200955006e6361003c
:102ba4006c69620072617400656420006f6e2d00b0
:102bb4006368690070207400656d7000657261005f
:102bc40074757200652069007320250064432e002b
:102bd40000000000581100002e0000000200000058
:102be400746173006b5f3500736563003a200900fc
:102bf40053746100727469006e672e000074610082
:102c0400736b5f0035736500633a200009526100fd
:102c14006e206100676169006e2e000000000000f4
:102c24001a0e00001002000002000000636d640030
:102c34005f657800706c6100696e3a002009680075
:102c44007c3f3a0020436f006d6d61006e64730039
:102c54003a207b00687c3f002c2069002c206d000a
:102c64002c2072002c2074002c2076002c207a005a
:102c74007d00740061736b005f636d00645f6400ca
:102c84006f3a20000953740061727400696e670022
:102c94002e00740061736b005f636d00645f6400f9
:102ca4006f3a200009436f006e7472006f6c20004d
:102cb40076696100205253002d32330032204900de
:102cc4002f4620006174200039363000302c4e002d
:102cd4002c382c00312e0000746173006b5f63008c
:102ce4006d645f00646f3a0020094d0069637200ef
:102cf4006f686100726420004d485800206d6f00b9
:102d040064656d00206174002039360030302c0079
:102d14004e2c38002c312e0000746100736b5f0060
:102d2400636d64005f646f003a200900693a200013
:102d3400457865007263690073652000492f4f0070
:102d440020656e0061626c0065642e000074610091
:102d5400736b5f00636d64005f646f003a20090069
:102d6400693a200045786500726369007365200044
:102d7400492f4f0020646900736162006c65640030
:102d84002e00740061736b005f636d00645f640008
:102d94006f3a200009723a0020526500736574008e
:102da40020696e0020312000732e000074617300ce
:102db4006b5f63006d645f00646f3a002009740008
:102dc4003a2055006e6361006c69620072617400a0
:102dd400656420006f6e2d006368690070207400c4
:102de400656d70006572610074757200652069001c
:102df4007320250064432e0000746100736b5f0030
:102e0400636d64005f646f003a200900763a200025
:102e140076312e00322e330020627500696c740006
:102e2400206f6e002041750067203300302032008f
:102e34003031310020617400203138003a343000e0
:102e44003a3130002e00740061736b005f636d00d3
:102e5400645f64006f3a2000097a3a0020467500e6
:102e64006c6c20007368750074646f00776e2000ca
:102e7400696e2000322073002e00740061736b00b1
:102e84005f636d00645f64006f3a2000097a3a0062
:102e940020537900737465006d20690073206e00ff
:102ea4006f77200073687500742064006f776e007c
:102eb4002e00740061736b005f636d00645f6400d7
:102ec4006f3a200009556e006b6e6f00776e20001c
:102ed400636f6d006d616e00643a20002725630006
:102ee400272028003078250058290000b20b000064
:102ef4006802000002000000746173006b5f6d00e3
:102f040068785f0074616c006b3a200009537400a8
:102f140061727400696e67002e00740061736b0047
:102f24005f6d6800785f7400616c6b003a20090083
:102f34004163710075697200656420005553420055
:102f44002f4d4800582049002f462000666f72001c
:102f5400204d4800582e0000746173006b5f6d00b3
:102f640068785f0074616c006b3a200009456e005c
:102f740061626c00696e6700204d4800582049006a
:102f84002f462e0000746100736b5f006d6878003b
:102f94005f7461006c6b3a0020094d0048585f0073
:102fa4005057520020697300204f4e002e007400c9
:102fb40061736b005f6d6800785f7400616c6b0017
:102fc4003a2009005761690074696e006720660041
:102fd4006f7220006d6f6400656d2000746f2000b7
:102fe400706f770065722d0075702e00007461009b
:102ff400736b5f006d6878005f7461006c6b3a00fe
:10300400200922006d687800223a2000706c61006b
:10301400636520006d6f6400656d2000696e20009b
:10302400636f6d006d616e0064206d006f646500f8
:103034002e006d0068780000746173006b5f6d0092
:1030440068785f0074616c006b3a200009224100cb
:103054005426460031264b003053310030383d00b1
:1030640030223a002066610063746f007279200098
:1030740023312c00206e6f0020682f00732c200059
:10308400316d57002e0041005426460031264b0076
:103094003053310030383d003000740061736b00f0
:1030a4005f6d6800785f7400616c6b003a20090002
:1030b4002241540041223a0020656e00746572007a
:1030c40020646100746120006d6f6400652e00004f
:1030d4004154410000746100736b5f006d687800b7
:1030e4005f7461006c6b3a0020095300656e6400e4
:1030f400696e670020736f006d6520006461740061
:10310400612e00000d0a00004375620065536100e2
:1031140074204b006974200070686f006e696e0043
:10312400672068006f6d6500202e2e002e0055006c
:103134006e6361006c6962007261740065642000f2
:103144006f6e2d006368690070207400656d7000f7
:103154006572610074757200652069007320250032
:1031640064432e0000746100736b5f006d68780027
:103174005f7461006c6b3a00200922002b2b2b003a
:10318400223a20006c656100766520006461740059
:1031940061206d006f6465002e002b002b2b000056
:1031a400746173006b5f6d0068785f0074616c001c
:1031b4006b3a200009446900736162006c696e0017
:1031c40067204d0048582000492f46002e00740007
:1031d40061736b005f6d6800785f7400616c6b00f5
:1031e4003a2009004d4858005f50570052206900aa
:1031f40073204f0046462e0000746100736b5f001d
:103204006d6878005f7461006c6b3a0020095200ad
:10321400656c6500617365006420550053422f009e
:103224004d48580020492f00462e000000000000a1
:10323400ac0b00000200000000000000ec110000d4
:103244001c00000002000000746173006b5f7300d7
:103254007461740075735f006d6f6e003a2009002d
:1032640053746100727469006e672e0000000000e0
:10327400ae0b000002000000000000000812000075
:103284001c00000002000000746173006b5f6f009b
:103294006e63680069705f0074656d00703a2000a9
:1032a400095374006f70700065642e000000000004
:1032b400ce1100001e0000000200000074617300c3
:1032c4006b5f65007865720063697300655f690010
:1032d4006f3a20000953740061727400696e6700cc
:1032e4002e000000861100002600000002000000ed
:1032f400636d64005f6d63006c6b3a002009090024
:103304006d3a2000436f6d006d616e0064206e00a5
:103314006f74200073757000706f720074656400c0
:103324002e000000b00b00000200000002000000ac
:103334007b0000002a100000ba0000000200000018
:103344000d0a0d000a005000756d70006b696e0067
:103354002043750062655300617420004b6974005a
:10336400202f5000494332003420280050504d0093
:103374002044310029207400657374005c74650076
:103384007374310020617000706c690063617400b3
:10339400696f6e002e0d0a00007631002e322e0069
:1033a4003320620075696c0074206f006e20410048
:1033b4007567200033302000323031003120610045
:1033c40074203100383a3400303a3200332e0d0084
:1033d4000a00570041524e00494e47003a2055001a
:1033e40073652000277a270020636f006d6d6100ec
:1033f4006e6420007769740068206300617574004e
:10340400696f6e00202d2d002072650066657200c4
:1034140020746f00207072006f6a65006374270067
:10342400732061006273740072616300742e74000f
:1034340078742e000d0a00005a0b000052000000a0
:1034440000000000361200000e0000000200000020
:10345400303a2500303130006c752000000a0d0030
:1034640000000000000800004c0100000000000003
:103474005a12000004000000020000000a0d0000bf
:1034840000000000441200000e00000002000000d2
:10349400313a2500303130006c752000000a0d00ef
:1034a400000000004c0900004c0100000000000076
:1034b4005e12000004000000020000000a0d00007b
:1034c40000000000241200001200000002000000ae
:1034d40001000200000400000800100000000000c9
:1034e400202b2d00233000005212000008000000a1
:1034f40002000000686a6c00747a4c00000000004e
:10350400ac11000022000000020000003031320043
:10351400333435003637380039616200636465003e
:103524006600300031323300343536003738390024
:1035340041424300444546000000000000000000f2
:020000040000fa
:103544000000fa00e01c21006c0a07005aaba80036
:10355400e3fa07008040eb0040c1b3007a0907009a
:10356400e50a0700ecfa07008040eb0040c1b30015
:1035740075090700e00a0700f5fa07008040eb0030
:1035840040c1b30070090700db0a0700fefa070018
:103594008040eb0040c1b3006b090700d60a070066
:1035a4003cfb07008040eb0040c1b3006609070004
:1035b400d10a070045fb07008040eb0040c1b3007f
:1035c40061090700cc0a07004efb07008040eb00ae
:1035d40040c1b3005c090700c70a070057fb070096
:1035e4008040eb0040c1b30057090700c20a07003e
:1035f40060fb07008040eb0040c1b30052090700a4
:10360400bd0a070069fb07008040eb0040c1b3001e
:103614004d090700b80a070072fb07008040eb0061
:1036240040c1b30048090700b30a07007bfb070049
:103634008040eb0040c1b30043090700ae0a070015
:1036440084fb07008040eb0040c1b3003e09070043
:10365400a90a07008dfb07008040eb0040c1b300be
:1036640039090700a40a070095fb07008040eb0016
:1036740040c1b300340907009f0a07009efb0700fe
:103684008040eb0040c1b3002f0907009a0a0700ed
:10369400a6fb07008040eb0040c1b3002a090700e5
:1036a400950a0700aefb07008040eb0040c1b30061
:1036b40025090700900a0700b6fb07008040eb00cd
:1036c40040c1b300200907008b0a0700bffb0700b5
:1036d4008040eb0040c1b3001b090700860a0700c5
:1036e40001fd07008040eb0040c1b300160907004c
:1036f400810a0700eefc07008040eb0040c1b300e4
:10370400110907007c0a0700dbfc07008040eb007e
:1037140040c1b3000c090700770a0700c8fc070082
:103724008040eb0040c1b30007090700720a07009c
:10373400b5fc07008040eb0040c1b300020907005c
:103744006d0a0700a2fc07008040eb0040c1b300f3
:10375400fd080700680a07008ffc07008040eb00a3
:1037640040c1b300f8080700630a07007cfc0700a7
:103774008040eb0040c1b300f30807005e0a070075
:1037840069fc07008040eb0040c1b300ee0807006d
:10379400590a070056fc07008040eb0040c1b30003
:1037a400e9080700540a070044fc07008040eb00c6
:1037b40040c1b300e40807004f0a070032fc0700c9
:1037c4008040eb0040c1b300df0807004a0a07004d
:1037d40020fc07008040eb0040c1b300da0807007a
:1037e400450a07000efc07008040eb0040c1b3000f
:1037f400d5080700400a0700fcfb07008040eb00e7
:1038040040c1b300d00807003b0a0700dbfb0700f8
:103814008040eb0040c1b300cb080700360a070024
:10382400c8fb07008040eb0040c1b300c608070096
:10383400310a0700b5fb07008040eb0040c1b3002c
:10384400c10807002c0a0700a2fb07008040eb0018
:1038540040c1b300bc080700270a070090fb07001b
:103864008040eb0040c1b300b7080700220a0700fc
:103874007efb07008040eb0040c1b300b2080700a4
:103884001d0a07006cfb07008040eb0040c1b30039
:10389400ad080700180a07005afb07008040eb0038
:1038a40040c1b300a8080700130a070013fa070071
:1038b4008040eb0040c1b300a30807000e0a0700d4
:1038c4001cfa07008040eb0040c1b3009e080700cb
:1038d400090a070025fa07008040eb0040c1b30045
:1038e40099080700040a07002efa07008040eb003d
:1038f40040c1b30094080700ff0907006cfa0700f1
:103904008040eb0040c1b3008f080700fa090700ac
:1039140075fa07008040eb0040c1b3008a08070035
:10392400f50907007efa07008040eb0040c1b300b0
:1039340085080700f009070087fa07008040eb00bc
:1039440040c1b30080080700eb09070090fa0700a4
:103954008040eb0040c1b3007b080700e609070084
:1039640099fa07008040eb0040c1b30076080700d5
:10397400e1090700a2fa07008040eb0040c1b30050
:1039840071080700dc090700abfa07008040eb0070
:1039940040c1b3006c080700d7090700b4fa070058
:1039a4008040eb0040c1b30067080700d20907005c
:1039b400bcfa07008040eb0040c1b3006208070076
:1039c400cd090700c5fa07008040eb0040c1b300f1
:1039d4005d080700c8090700cdfa07008040eb0026
:1039e40040c1b30058080700c3090700d5fa07000f
:1039f4008040eb0040c1b30053080700be09070034
:103a0400ddfa07008040eb0040c1b3004e08070018
:103a1400b9090700e6fa07008040eb0040c1b30093
:103a240049080700b4090700effa07008040eb00db
:103a340040c1b30044080700af09070031fc070088
:103a44008040eb0040c1b3003f080700aa0907000b
:103a54001efc07008040eb0040c1b3003a08070099
:103a6400a50907000bfc07008040eb0040c1b30030
:103a740035080700a0090700f8fb07008040eb00a9
:103a840040c1b300300807009b090700e5fb0700ad
:103a94008040eb0040c1b3002b08070096090700e3
:103aa400d2fb07008040eb0040c1b30026080700aa
:103ab40091090700bffb07008040eb0040c1b30041
:103ac400210807008c090700acfb07008040eb00cd
:103ad40040c1b3001c0807008709070099fb0700d1
:103ae4008040eb0040c1b3001708070082090700bb
:103af40086fb07008040eb0040c1b30012080700ba
:103b04007d09070073fb07008040eb0040c1b30050
:103b14000d0807007809070061fb07008040eb00ef
:103b240040c1b30008080700730907004ffb0700f2
:103b34008040eb0040c1b300030807006e09070092
:103b44003dfb07008040eb0040c1b300fe070700c7
:103b5400690907002bfb07008040eb0040c1b3005c
:103b6400f9070700640907000bfb07008040eb001e
:103b740040c1b300f40707005f090700f8fa070023
:103b84008040eb0040c1b300ef0707005a0907006b
:103b9400e5fa07008040eb0040c1b300ea070700e4
:103ba40055090700d2fa07008040eb0040c1b3007a
:103bb400e507070050090700bffa07008040eb0043
:103bc40040c1b300e00707004b090700adfa070046
:103bd4008040eb0040c1b300db0707004609070043
:103be4009bfa07008040eb0040c1b300d6070700f2
:103bf4004109070089fa07008040eb0040c1b30087
:103c0400d10707003c09070050fe37000800fa00fe
:103c1400000f7800110798002207980033079800d6
:103c24000000eb00004088000000eb00104088001a
:103c34000000eb00204088000000eb0030428800c8
:103c44000000eb00404288000000eb005042880076
:103c540092f807001e00780096f807003e019000d5
:103c6400ae0090001e009000bdf807000080fa002e
:103c7400000006000000fa0088f807000080fa003f
:103c8400000006000600fa001007980001408000ba
:103c94001e009000810f5000030039000000eb006b
:103ca400200798001b003700214080001e00900070
:103cb40080804000f0032000808f50000b0036000d
:103cc400214080001e0090008080400000fc2f00f6
:103cd4008080400060802000008040001040780018
:103ce4000080fb00000f78000800370021408000ae
:103cf4001e00900080804000608020000080400012
:103d0400104078000080fb00000f78001e0078004f
:103d1400200798002e0090000080fa0000000600a2
:103d24000000fa00004080000080fa000000060055
:103d34000000fa0031428000001020000100500011
:103d44000080fa00000006000400fa000040800031
:103d54000000e00017003200214080006080200055
:103d640000804000104078000080fb00000f7800c5
:103d74000100e8002040880021408000f00320007a
:103d8400808f5000020036000000eb0020408800c5
:103d94009560a90000000000004080000000e900d8
:103da400004088009560a8001e0078001007980065
:103db400020037000000eb00100798001e0090007e
:103dc4000080fa00000006000400fa00000f7800ea
:103dd400004080000000e000170032002240800014
:103de4006080200000004100904078001e007800b0
:103df400014878000200e80020408800214080004b
:103e0400f0032000808f5000020036000000eb0019
:103e1400204088009560a900000000000040800058
:103e24000000e900004088009560a8000000eb0055
:103e340010079800020037001000200010079800b7
:103e44001e0090000080fa00000006000400fa0042
:103e5400000f780031428000f00f2000808f500066
:103e640017003e00424280001e0078008040780027
:103e7400c084200000004100014878000200e800ee
:103e84004042880041428000f00f2000808f5000a3
:103e9400020036000000eb00404288009580a90033
:103ea40000000000304280000000e800304288003a
:103eb4009580a8001e0078001007980002003700c3
:103ec4000000eb00100798001e0090000080fa002c
:103ed400000006000200fa00000f78000500370019
:103ee4001e007800104078000000fb00d7ff070098
:103ef4001e0fe8001e007800104078000004e00067
:103f0400f7ff3a000000eb000080fa000000060012
:103f14000000fa008580a9001bf807000004e000f7
:103f2400fdff3a0051428000c08420000080400020
:103f3400104078000081fb000100e8005042880036
:103f44000200780014f8070051428000f00f2000ae
:103f5400808f5000020036000000eb0050428800c1
:103f6400304280000000e900304288003042800086
:103f74000000e00001003a009580a9000080fa00ea
:103f8400000006000200fa00004f78008560a900d6
:103f940001408000f0032000808f50000f003e009d
:103fa4001140800060802000008040001e4878009e
:103fb4000100e8001040880011408000f003200058
:103fc400808f5000020036000000eb001040880093
:103fd400004080000000e800004088000080fa00f3
:103fe400000006000800fa00000f7800110798008e
:103ff40022079800330798000000eb00604a88000d
:104004000000eb00704a88000000eb00804a880042
:104014000000eb00904c88000000eb00a04c8800ee
:104024000000eb00b04c8800e5f707001e007800a4
:10403400e9f707003e019000ae0090001e009000da
:104044000ff807000080fa00000006000000fa00e4
:10405400dbf707000080fa00000006000600fa0003
:1040640010079800614a80001e009000810f5000e4
:10407400030039000000eb00200798001b00370004
:10408400814a80001e00900080804000f0032000e0
:10409400808f50000b003600814a80001e00900083
:1040a4008080400000fc2f0080804000209520008c
:1040b40000804000104078000080fb00000f780072
:1040c40008003700814a80001e0090008080400074
:1040d4002095200000804000104078000080fb0004
:1040e400000f78001e007800200798002e00900032
:1040f4000080fa00000006000000fa00604a800018
:104104000080fa00000006000000fa00914c8000d4
:1041140000102000010050000080fa00000006009a
:104124000400fa00604a80000000e000170032003a
:10413400814a8000209520000080400010407800d3
:104144000080fb00000f78000100e800804a88002e
:10415400814a8000f0032000808f50000200360066
:104164000000eb00804a880097c0a900000000000e
:10417400604a80000000e900604a880097c0a800f7
:104184001e00780010079800020037000000eb00c2
:10419400100798001e0090000080fa00000006003e
:1041a4000400fa00000f7800604a80000000e0007c
:1041b40017003200824a8000209520000000410050
:1041c400904078001e007800014878000200e80062
:1041d400804a8800814a8000f0032000808f5000cc
:1041e400020036000000eb00804a880097c0a90056
:1041f40000000000604a80000000e900604a880076
:1042040097c0a8000000eb001007980002003700d8
:1042140010002000100798001e0090000080fa0093
:10422400000006000400fa00000f7800914c8000a2
:10423400f00f2000808f500017003e00a24c800039
:104244001e00780080407800809920000000410022
:10425400014878000200e800a04c8800a14c8000ce
:10426400f00f2000808f5000020036000000eb00a9
:10427400a04c880097e0a90000000000904c80004a
:104284000000e800904c880097e0a8001e00780029
:1042940010079800020037000000eb001007980098
:1042a4001e0090000080fa00000006000200fa00e0
:1042b400000f7800050037001e00780010407800d9
:1042c4000000fb00d7ff07001e0fe8001e00780067
:1042d400104078000004e000f7ff3a000000eb0013
:1042e4000080fa00000006000000fa0087e0a90040
:1042f4006df707000004e000fdff3a00b14c8000b8
:104304008099200000804000104078000081fb006c
:104314000100e800b04c88000200780066f707004e
:10432400b14c8000f00f2000808f50000200360056
:104334000000eb00b04c8800904c80000000e900c5
:10434400904c8800904c80000000e00001003a008e
:1043540097e0a9000080fa00000006000200fa00bd
:10436400004f780087c0a900614a8000f003200054
:10437400808f50000f003e00714a8000209520007d
:10438400008040001e4878000100e800704a880060
:10439400714a8000f0032000808f50000200360034
:1043a4000000eb00704a8800604a80000000e800ca
:1043b400604a88000080fa00000006000000fa004d
:1043c400c2070700ce07070012003700605a8000ba
:1043d400e0598800e059800030009000605a88005d
:1043e400e15980000000eb00b0009800e059800023
:1043f400a1b32000e6010700605a80000000e0003d
:1044040002003a000000eb00505a8800b30707008e
:10441400ae070700605a80000000e000ebff3a009e
:104424006d00370054cbbf000040e90054ebb700e7
:10443400705a8000e0598800e05980000000e000d4
:104444005e003200e0598000805090008140e90015
:104454000150980059003700e05980007000900026
:10446400705a8800e2598000805a8000915a800076
:1044740000519800e0598000900078000007200067
:104484008080600000022000808f50000a003a0003
:10449400e0598000900078000140a0000150a10084
:1044a4000160a00001087800e0598000a1b3200059
:1044b400b70107003d003700e05980009000780004
:1044c400000720008080600000072000808f5000db
:1044d4001b003a0081070700e0598000200090008b
:1044e4000000010079070700e059800010007800ff
:1044f4006f0060000000e00004003a00e159800011
:10450400110078000070a10080087800e059800054
:104514009000780000082000008060000000e000a7
:1045240022003200e1598000e059800020489000c8
:1045340080509800e0598000cf0107001b0037002d
:10454400e0598000500090000000e00017003200a5
:10455400e05980005000900080007800e05980000d
:1045640001030700e0598000c1b42000fe020700e7
:10457400e0598000a1b32000fb020700e15980004c
:104584000000eb00d0009800e15980001100780091
:104594000040a1000050a0000060a0008008780046
:1045a400e0598000a1b3200079010700705a80000f
:1045b400e05988004907070044070700e0598000d4
:1045c4000000e00004003200e05980000050900038
:1045d4000004e000a0ff320054cbbf000004e00060
:1045e40090ff3a00d0598000e0598800e0598000db
:1045f4000000e00016003200d05980003000900026
:10460400d0598800e2598000e05980001000be00b3
:10461400300198004101980030070700af060700f9
:104624002a070700e0598000900078000007200066
:104634008080600000052000808f500007003a0051
:10464400e0598000a1b320005101070003003700a6
:10465400220707002e0707001c0707001f07070093
:104664000080fa00000006000000fa00a0e120002b
:10467400220607000080fa00000006000400fa0089
:10468400f0e420001d0607008040eb0020c3b300c7
:104694002d050700980607005a6ba9005a8ba9003c
:1046a40070e62000150607008040eb0020c3b3002d
:1046b4002505070090060700b0e920000f06070053
:1046c4008040eb0020c3b3001f0507008a060700e3
:1046d400e5ff0700010037008706070040b420000b
:1046e4008040eb001b0307000080fb000000d100aa
:1046f400610060000004e000f7ff3a0092fd07004b
:10470400004f78001e04e000f4ff32001e80fb001e
:10471400a9ef070010079800200720009e009000d2
:10472400808f50003c003200200720009e00900043
:10473400808f500016003c00900620009e009000e0
:10474400808f500021003200900620009e009000cf
:10475400808f500009003c00f00320009e00900070
:10476400808f500017003200800620009e009000c9
:10477400808f50001300320058003700d00620000c
:104784009e009000808f50002100320053003700bb
:10479400600720009e009000808f5000300032009f
:1047a400a00720009e009000808f50002f00320050
:1047b400400720009e009000808f50001e003200b1
:1047c40046003700a8ff0700c4ff3700d05a800016
:1047d40001022000010060000000e00006003a0031
:1047e400e0ac2000a90507005aaba800c0ec2000eb
:1047f400c2050700b9ff3700e0ac2000f50507004b
:104804005aaba90030ef2000bc050700b3ff370006
:10481400b6060700b1ff3700b0f12000b705070066
:104824008040eb0040c6b300c7040700320607000f
:104834009d060700a9ff370097060700801f780030
:10484400a0f32000801f7800c0b5200049ef0700c6
:10485400e4875700c0b52000a80507009fff370074
:1048640040f72000a50507009cff3700e0fa200070
:10487400a205070020c0b300004f780008003700ed
:104884001e80fb007200b9008000780080a920001f
:104894007200500000804000ce0507001e4fe80063
:1048a40090c0b3009e4f1000f5ff36008040eb002f
:1048b40040c6b300a40407000f06070050fd200003
:1048c4008e0507008040eb0040c6b3009e0407003d
:1048d400090607006404070080ff37001e80fb0000
:1048e4009e80fb00801f7800811f7800f0ff20006d
:1048f400801f7800c0b520001eef0700e687570030
:10490400c0b520007d05070074ff37000000fa00e1
:1049140069060700ff3ffc0030ff200000168800f6
:104924000000eb004016880010fe2f00801688005f
:1049340000cc2200c016880030c02f000017880069
:1049440040e12c004017880000c32f008017880026
:104954000000eb00101688000000eb0050168800e1
:1049640020002000901688000000eb00d01688007c
:10497400c001200010178800800220005017880012
:104984000000eb00901788000080eb00601988009d
:104994000c0407002a0407002f050700020507007e
:1049a40090ff2f000cf5070001c4290050f82d00da
:1049b40023f50700416a20009140780000ccb30041
:1049c40000c06000e041b300a4e6b700016d200020
:1049d4009140780000ccb30000c060003040b300c8
:1049e400d0e6b700616a20009140780000ccb300a3
:1049f40000c06000a040b300a6e6b700116d20001f
:104a04009140780000ccb30000c060005040b30077
:104a1400d1e6b70093012000d275200001402c009c
:104a2400f0f72f0079fc070093012000d2752000d5
:104a340001402c00f0f72f006afd0700a0022100be
:104a440024fd0700f002210022fd0700d00621000a
:104a540020fd0700800921001efd07000080fa00e8
:104a6400000006003600f800809fbe00829fbe0052
:104a7400849fbe00869fbe000000fa0084e0a90067
:104a84006e0507000080fa004f03be004f02be000f
:104a94004f01be004f00be003600f9000040060082
:104aa4003600f800809fbe00829fbe00849fbe0037
:104ab400869fbe000000fa0015fd07000080fa0082
:104ac4004f03be004f02be004f01be004f00be00a8
:104ad4003600f900004006003600f800809fbe0052
:104ae400829fbe00849fbe00869fbe000000fa0025
:104af400d8f4070023fd070040b42000310207006a
:104b04000080fa004f03be004f02be004f01be00fa
:104b14004f00be003600f900004006003600f800e1
:104b2400809fbe00829fbe00849fbe00869fbe0001
:104b34000000fa00ecfd07000080fa004f03be00fd
:104b44004f02be004f01be004f00be003600f90008
:104b5400004006003600f800809fbe00829fbe0021
:104b6400849fbe00869fbe000000fa00c2f40700c6
:104b7400fafd07000080fa004f03be004f02be009a
:104b84004f01be004f00be003600f9000040060091
:104b94000c00fa0030079800410798004e0090007e
:104ba40090007800210798002e0090000000e0009b
:104bb40009003a004e009000be0090000108780001
:104bc400be0090000000eb00b00098000000eb0075
:104bd40050079800250037000000eb0010079800ec
:104be4003e009000100078006f406000004f780095
:104bf40005003700ae009000110798002e009000c9
:104c0400b0009000210798002e0090000000e00002
:104c1400070032009e80fb002e00900010007800f8
:104c24006f4060000080fb00808f5000f1ff3d006a
:104c34001e0090000000e00004003a004e009000c6
:104c4400be00900001087800030037001e009000a9
:104c5400be009000310098003e009000ae0090002d
:104c6400310098000000eb00500798005e009000af
:104c74000080fa00000006000a00fa0030079800dd
:104c8400705a8000200798002e0090000000e00079
:104c940008003a00be009000715a8800be009000df
:104ca4000000eb00f00098000000eb0040079800c3
:104cb4003d0037000000eb00100798002e00900024
:104cc40080509000014f78000b0037002e009000b8
:104cd400100798002e009000f00090002107980023
:104ce4002e0090000000e000030032002e0090002f
:104cf400005090001e4f40002e0090000000e00085
:104d0400040032003e009000005090009e4f50007e
:104d1400eeff31002e0090000000e000040032009d
:104d24002e009000805090001e407800014f5000eb
:104d34003e009000005090009e4050003e009000c5
:104d4400015098002e0090000000e000080032009e
:104d54003e00900080509000014f78002e0090009b
:104d6400005090009e4050002e009000015098008a
:104d74001e0090000000e00003003a003e00900096
:104d8400705a8800030037001e009000be00900097
:104d9400710098003e009000ae00900071009800f1
:104da4000000eb00400798004e0090000080fa00dd
:104db400000006000000fa0020bb20004f0407009a
:104dc4008040eb00a0cfb3005f030700ca040700d4
:104dd4008040eb00a0cfb3005b030700c6040700cc
:104de4008040eb00a0cfb30057030700c2040700c4
:104df400a70407004900de000074a1000040e80099
:104e04008040eb0050030700bb040700010037009b
:104e1400b90407008040eb00e0b32000b0010700b4
:104e24000080fb000000d100610060000004e0008d
:104e3400f7ff3a00c0bc200030040700a0bf2000e8
:104e44002e040700c9020700f20207005a4ba8000b
:104e5400c0c1200029040700b0c3200027040700b4
:104e64008040eb0040c6b30037030700a2040700ec
:104e7400a0c6200021040700e0c920000bfd0700a4
:104e84008040eb0040c6b3002f0307009a040700dc
:104e940020ca200019040700d0cd200003fd07001c
:104ea4008040eb0020c3b3002703070092040700ef
:104eb400c0ce20001104070040d12000fbfc0700f5
:104ec4008040eb0060c9b3001f0307008a04070099
:104ed40080d1200009040700b0d32000f3fc0700b0
:104ee400c0b52000e1d320001c000900315878002f
:104ef400c0b520001c0407008040eb0040c6b3008e
:104f0400110307007c040700e3040700801f7800f6
:104f1400b0d52000801f7800c0b5200095ed0700b3
:104f2400e4875700c0b520000f0407008040eb0061
:104f340040c6b300040307006f04070040d82000f4
:104f4400ee0307008040eb0040c6b300fe020700fa
:104f540069040700c0da2000d4fc07008040eb009d
:104f640040c6b300f80207006304070000db20001a
:104f7400e2030700b20207009202070030dd2000be
:104f8400de0307005a4ba900e0b320006e010700be
:104f940030df2000d90307008dff37000800fa0036
:104fa400100798004147980052479800e059800044
:104fb4009000780000072000808060000006200038
:104fc400808f50000d003a00e159800011007800f4
:104fd4000040a0000050a1000060a00080087800fc
:104fe400e1598000110078000070a1008008780069
:104ff400500020003007980058003700e059800026
:10500400b00090000140a0000150a1000160a00088
:10501400310098004e4090000004e0002700320068
:10502400e0598000900078000008200000806000b3
:105034000000e0001a003200e159800011007800fd
:105044000070a10080087800e059800050009000b2
:105054000000e00005003200e05980008000eb0011
:1050640051009800e05980007700070080c0b30029
:10507400004f7800e1598000110078000040a00042
:105084000050a1000060a000800878001e40780055
:105094000004a0000080fb00300798002f003700b8
:1050a400e1598000110078000070a00080087800a9
:1050b4002100200031079800280037005e4090004e
:1050c4000004e00007003a00e15980001100780074
:1050d4000040a1000050a1000060a00080087800fa
:1050e40015003700e0598000900078000007200088
:1050f4008080600000052000808f50000e003a0080
:10510400e1598000110078000040a1000050a10086
:105114000060a00080087800e0598000de40900024
:1051240001509800e05980009e00900051009800c2
:10513400e0598000d0fe0700e1598000110078009a
:105144000070a000800878009e009000e059800064
:105154008ffe070020002000300798003e009000da
:105164000080fa00000006000c00fa0030079800e6
:10517400410798004e0090009000780011079800b5
:105184000000eb00200798003e009000b000900063
:10519400010f7800240037009e0090003e0090002c
:1051a400808f50001b003a002e0090000000e000a9
:1051b40003003a004e0090001e08780003003700f8
:1051c4002e0090009e00780031009800ce009000e0
:1051d400e0b42000808f50000b003a001e00e00075
:1051e400090032003e0090000050900040479800b3
:1051f4001e007800805090004e40900080c0400017
:105204001e007800015098000000eb005007980041
:105214000a0037009e009000210798001e009000ad
:10522400b0009000110798001e0090000000e000fc
:10523400d9ff3a0010002000500798005e0090004b
:105244000080fa00000006000a00fa003007980007
:10525400705a8000100798000000eb0020079800a7
:105264003e009000f0009000010f7800200037000d
:105274009e0090003e009000808f500017003a007e
:105284002e0090000000e00003003a001e007800a9
:10529400705a8800030037002e0090009e007800aa
:1052a400710098001e00e000090032003e009000ea
:1052b40000509000404798001e00780080509000f5
:1052c4004e40900080c040001e00780001509800bd
:1052d4000000eb00400798000a0037009e00900091
:1052e400210798001e009000f0009000110798001c
:1052f4001e0090000000e000ddff3a0010002000d6
:10530400400798004e0090000080fa00000006005c
:105314000400fa00000f780021479800eb0307000f
:105324009e0078000000eb00800878001e007800e2
:10533400ae409000214098009e00780050c0b30019
:10534400c0409800e50307000000eb000080fa006d
:10535400000006000600fa00100798004147980074
:10536400da0307001e00900020409000004f7800f0
:105374009e4078004e4190001e00900007ff0700f9
:10538400004f78001e4078000080fb004300de00e0
:10539400610060000004e000050032001e0090007f
:1053a400204090008040e9001e00900021409800b9
:1053b400ca0307001e4078000080fb000080fa004a
:1053c400000006000400fa0010079800bf0307005d
:1053d4001e00900040409000e54f50000300320052
:1053e40060c0b300004f7800260037001e00900014
:1053f40020409000e14f400003003a0040c0b30059
:10540400004f78001f0037001e00900020409000dd
:105414008040e8001e009000214098001e0090008b
:1054240010007800000f78001e0078000000e000f3
:1054340012003200605a80000000e00003003a00cd
:105444001e007800605a880003003700515a80001b
:105454001e007800b00098001e007800505a8800a2
:105464001e007800b00090001e0090000108780033
:105474009e0078000000eb00b00098000040eb00b4
:10548400004f7800950307001e4078000080fb0061
:105494000080fa00000006000400fa00000f780003
:1054a40021479800890307009e0078000000eb0064
:1054b400800878002e409000e14060001e007800d3
:1054c400214098009e00780010c0b300c0409800ae
:1054d400820307000000eb000080fa0000000600d1
:1054e4000600fa0010079800414798007703070068
:1054f4001e00900020409000004f78009e407800ed
:105504004e4190001e009000a4fe0700004f78005a
:105514001e4078000080fb004300de006100600054
:105524000004e000030032009e0090000040eb0005
:10553400a0409800690307001e4078000080fb002b
:105544000080fa00000006000400fa00100798002a
:105554005e0307001e00900040409000e14f5000a1
:105564000300320060c0b300004f7800240037000d
:105574001e009000204090000004e0000300320070
:1055840040c0b300004f78001d0037009e0090001b
:1055940010c0b300a04098001e00900010007800d6
:1055a400000f78001e0078000000e00012003200b6
:1055b400605a80000000e00003003a001e007800fa
:1055c400605a880003003700515a80001e0078009a
:1055d400b00098001e007800505a88001e00780021
:1055e400b00090001e009000010878009e00780032
:1055f4000000eb00b00098000040eb00004f780082
:10560400360307001e4078000080fb000080fa008b
:10561400000006000600fa00000f78001107980049
:1056240042479800290307009e0090000000eb0009
:10563400900098004e409000804078000174a100d2
:105644001e009000220007009e00900011007800c8
:105654000040a0000050a1000060a1008008780074
:105664009e009000110078000070a100800878006e
:105674001e0090009e00780021009800805a80004f
:10568400915a8000804078001e00900001509800dc
:105694004e4090000004e000090035009e00900098
:1056a400110078000040a0000050a1000060a0009c
:1056b40080087800a1b320001e00900034fd07008c
:1056c400060307000000eb000080fa00000006005b
:1056d4000600fa0010079800414798004e409000d9
:1056e400ef4f500005003600f0c0b300404798006b
:1056f40010c0b300004f7800020037000040eb00f8
:10570400004f78004e409000ef4060009e019000f2
:10571400130078008180fb006f81600001ff2f007f
:105724000100600002007000800978001e80fb0008
:105734000080fa00000006000400fa001007980038
:105744001e0090000000e00003003a000040eb005f
:10575400104798000f0037001e00900010007800da
:105764004400de0067406000004f78001e04e00043
:105774000300320070c0b3009e4f100003003a00d3
:105784000040eb00104798000200370010c0b3003f
:10579400104798001e4090000080fb000080fa0033
:1057a400000006000800fa0010079800414798001e
:1057b4000040eb00104798001e0090001000780095
:1057c4004400de0067406000004f78001e80fb004c
:1057d40030079800be009000e28f500010003200a5
:1057e4003e009000e20f500004003c00be00900018
:1057f400e18f50001300320010003700be0090000b
:1058040065805000e10f50000c003e00a1b3200061
:105814001e00900054fe070010479800090037004e
:105824004e4090000004e000060032001e0090008c
:1058340085fe0700104798000200370010c0b3002f
:10584400104798001e4090000080fb000080fa0082
:10585400000006000200fa00c01e2100a701070094
:105864000040eb00adebb70044010700adcbbf0037
:105874000000fb00000f78001e007800e20f5000cb
:105884001a0032001e007800e20f500007003c00ae
:105894001e0078000000e0000e0032001e007800b8
:1058a400e10f50000f003200210037001e00780085
:1058b400e40f5000160032001e007800e40f500080
:1058c400110035001e007800e50f5000160032006c
:1058d400170037003f01070050c0b300acebb7001e
:1058e400150037004201070013003700d05a80002a
:1058f40001022000010060000000e0000e00320000
:10590400340107000c003700390107000a00370092
:10591400d05a8000640060000000e00006003200fd
:105924002c01070004003700310107000200370092
:1059340000c5b300acebb700adcbbf000040e8003e
:10594400adebb700adcbbf00e64f50000200340012
:105954000040eb00adebb700accbbf008040eb00e8
:1059640079000700e4010700c0ff37000000fa00d7
:10597400d11680006002200000807000d0168800dc
:10598400c116800090fd2f0000806000c0168800c2
:1059940080168000c001b3008016880011178000b3
:1059a400b0ff2f00008060001017880001178000ee
:1059b400b0ff2f0000806000001788000080fa000c
:1059c400000006000000fa00d116800060022000ea
:1059d40000807000d0168800c116800090fd2f0052
:1059e40000806000c016880080168000c001b300eb
:1059f40080168800101780000020a000101788006f
:105a0400001780000020a000001788000080fa0022
:105a1400000006000000fa001117800070ff2f003c
:105a240000806000101788000117800070ff2f00ad
:105a340000806000001788000080fa000000060063
:105a44000000fa00101780000030a0001017880032
:105a54000117800070ff2f0000806000001788008d
:105a64000080fa00000006000000fa00ff3ffc007e
:105a7400d4ff0700f2ff0700f7000700ca00070081
:105a840030ff2000001688000000eb00401688005c
